:020000040800F2
:10000000000002200D3B0008810900088309000858
:100010008509000887090008890900080000000018
:100020000000000000000000000000008B09000834
:100030008D090008000000008F09000891090008E0
:100040005D3B00085D3B00085D3B00085D3B000830
:100050005D3B00085D3B00085D3B00085D3B000820
:100060005D3B00085D3B00085D3B00085D3B000810
:100070005D3B00085D3B00085D3B00085D3B000800
:100080005D3B00085D3B00085D3B00085D3B0008F0
:100090005D3B00085D3B00085D3B00085D3B0008E0
:1000A0005D3B00085D3B00085D3B00085D3B0008D0
:1000B0005D3B00085D3B00085D3B00085D3B0008C0
:1000C0005D3B00085D3B00085D3B00085D3B0008B0
:1000D0005D3B00085D3B00085D3B00085D3B0008A0
:1000E0005D3B00085D3B00085D3B00085D3B000890
:1000F0005D3B00085D3B00085D3B00085D3B000880
:100100005D3B00085D3B00085D3B00085D3B00086F
:100110005D3B00085D3B00085D3B00085D3B00085F
:100120005D3B00085D3B00085D3B00085D3B00084F
:100130005D3B00085D3B00085D3B00085D3B00083F
:100140005D3B00085D3B00085D3B0008BD07000803
:100150005D3B00085D3B00085D3B00085D3B00081F
:100160005D3B00085D3B00085D3B00085D3B00080F
:100170005D3B00085D3B00085D3B0008000000009F
:080180005D3B00085D3B000837
:1001900010B5054C237833B9044B13B10448AFF3C1
:1001A00000800123237010BDD80000200000000053
:1001B000F84A000808B5034B1BB103490348AFF3E5
:1001C000008008BD00000000DC000020F84A0008A4
:1001D000034613F8012B002AFBD1181A0138704787
:1001E00001F0FF01102A2BDB10F0070F08D010F8E8
:1001F000013B013A8B422DD010F0070F42B3F6D1EC
:10020000F0B441EA012141EA014122F007047FF004
:1002100000070023F0E80256083C85EA010586EA5B
:10022000010685FA47F5A3FA87F586FA47F6A5FA97
:1002300087F68EB9EED1F0BC01F0FF0102F00702A3
:1002400032B110F8013B013A83EA010313B1F8D14E
:100250000020704701387047002D06BF354603382F
:10026000073815F0010F07D1013015F4807F02BF68
:10027000013015F4C03F0130F0BC0138704700BFB9
:1002800053B94AB9002908BF00281CBF4FF0FF31FD
:100290004FF0FF3000F074B9ADF1080C6DE904CEF9
:1002A00000F006F8DDF804E0DDE9022304B0704751
:1002B0002DE9F047089D04468E46002B4DD18A4219
:1002C000944669D9B2FA82F252B101FA02F3C2F14C
:1002D000200120FA01F10CFA02FC41EA030E9440DD
:1002E0004FEA1C48210CBEFBF8F61FFA8CF708FBFE
:1002F00016E341EA034306FB07F199420AD91CEBD6
:10030000030306F1FF3080F01F81994240F21C8107
:10031000023E63445B1AA4B2B3FBF8F008FB10334F
:1003200044EA034400FB07F7A7420AD91CEB040484
:1003300000F1FF3380F00A81A74240F20781644454
:10034000023840EA0640E41B00261DB1D4400023D9
:10035000C5E900433146BDE8F0878B4209D9002D3D
:1003600000F0EF800026C5E9000130463146BDE8C7
:10037000F087B3FA83F6002E4AD18B4202D3824231
:1003800000F2F980841A61EB030301209E46002DE0
:10039000E0D0C5E9004EDDE702B9FFDEB2FA82F235
:1003A000002A40F09280A1EB0C014FEA1C471FFA93
:1003B0008CFE0126200CB1FBF7F307FB131140EA7A
:1003C00001410EFB03F0884208D91CEB010103F147
:1003D000FF3802D2884200F2CB804346091AA4B209
:1003E000B1FBF7F007FB101144EA01440EFB00FEDD
:1003F000A64508D91CEB040400F1FF3102D2A64542
:1004000000F2BB800846A4EB0E0440EA03409CE7E0
:10041000C6F12007B34022FA07FC4CEA030C20FA8D
:1004200007F401FA06F31C43F9404FEA1C4900FAAD
:1004300006F3B1FBF9F8200C1FFA8CFE09FB18112A
:1004400040EA014108FB0EF0884202FA06F20BD99D
:100450001CEB010108F1FF3A80F08880884240F2ED
:100460008580A8F102086144091AA4B2B1FBF9F031
:1004700009FB101144EA014100FB0EFE8E4508D92C
:100480001CEB010100F1FF346CD28E456AD90238B1
:10049000614440EA0840A0FB0294A1EB0E01A14296
:1004A000C846A64656D353D05DB1B3EB080261EB04
:1004B0000E0101FA07F722FA06F3F1401F43C5E9DE
:1004C000007100263146BDE8F087C2F12003D84014
:1004D0000CFA02FC21FA03F3914001434FEA1C4756
:1004E0001FFA8CFEB3FBF7F007FB10360B0C43EA48
:1004F000064300FB0EF69E4204FA02F408D91CEBF8
:10050000030300F1FF382FD29E422DD902386344F5
:100510009B1B89B2B3FBF7F607FB163341EA034195
:1005200006FB0EF38B4208D91CEB010106F1FF38E4
:1005300016D28B4214D9023E6144C91A46EA0046DB
:1005400038E72E46284605E70646E3E61846F8E66D
:100550004B45A9D2B9EB020864EB0C0E0138A3E7B6
:100560004646EAE7204694E74046D1E7D0467BE797
:10057000023B614432E7304609E76444023842E70F
:10058000704700BF2DE9F04F8DB000240794089408
:1005900009940A940B940194564B1A6B42F0100282
:1005A0001A631A6B02F010020192019A02941A6BFC
:1005B00042F004021A631A6B02F004020292029AD9
:1005C00003941A6B42F080021A631A6B02F08002E5
:1005D0000392039A04941A6B42F001021A631A6B95
:1005E00002F001020492049A05941A6B42F002028E
:1005F0001A631A6B02F002020592059A06941A6BAE
:1006000042F008021A631B6B03F008030693069B73
:10061000394E22460821304600F080FEDFF8E09097
:1006200001221146484600F079FEDFF8D8802246C4
:100630004FF21001404600F071FE08270797012590
:10064000089509940A9407A9304600F07FFD0795A4
:10065000089509940A9407A9484600F077FD079782
:100660000227089709940A944FF0050ACDF82CA0A8
:1006700007A9484600F06AFD0795DFF88C90CDF891
:100680002090099407A91D4800F060FD04230793FA
:1006900008940994DFF874B007A9584600F056FD95
:1006A0004FF480630793089709940A94CDF82CA01F
:1006B00007A9584600F04AFD4FF21003079308952A
:1006C00009940A9407A9404600F040FD20230793AF
:1006D0000894099407A9404600F038FD0797CDF823
:1006E0002090099407A9304600F030FD0DB0BDE818
:1006F000F08F00BF003802400010024000000240AE
:1007000000080240000C02400000121000040240E9
:100710002DE9F04188B000250195264C236B43F06C
:1007200001032363236B03F001030193019B4FF447
:10073000C05303934FF00308CDF8188002230493AD
:1007400005950A2707971C4E03A9304600F0FEFCCA
:100750004FF4007303930495059503A9304600F008
:10076000F5FC4FF480630393122304930123059354
:10077000CDF81880079703A9304600F0E7FC636BBB
:1007800043F0800363630295636C43F480436364C6
:10079000636C03F480430293029B4FF0A0439A6B77
:1007A00022F400129A639A6B42F400229A6308B012
:1007B000BDE8F081003802400000024008B500208A
:1007C00003F0E0F808BD000008B5024803F002FAA3
:1007D00008BD00BF104B000808B5024803F0FAF945
:1007E00008BD00BF204B000808B5024803F0F2F92D
:1007F00008BD00BF344B000808B5024803F0EAF911
:1008000008BD00BF444B000830B583B003E001A928
:10081000002001F059FF0021084601F049FF00289F
:10082000F5D14FF47A7000F02FFE174B1B685D1E58
:1008300028D4164CE35C90228DF800208DF801300E
:100840007F238DF8023003236A460021084601F019
:1008500051FF635D80228DF800208DF8013000206B
:100860008DF8020003236A46014601F043FF064A61
:100870001368013313603F2B02D9134600221A601C
:1008800003B030BD3F25D4E7F40000200000002075
:1008900072B6FEE700B599B0302200210DEB0200E0
:1008A00003F090F900230793089309930A930B939D
:1008B00003930493059306930193274A116C41F027
:1008C00080511164126C02F080520192019A0293DD
:1008D000224B1A6842F480421A601B6803F480437A
:1008E0000293029B01230C934FF480330D93022358
:1008F00012934FF480021392082214924FF4A872BC
:1009000015921693072317930CA800F065F8E8B921
:100910000F23079302230893002309934FF4A05356
:100920000A934FF480530B93052107A800F0B4FA03
:1009300070B901230393C02304930223059303A8F2
:1009400000F05AFB30B919B05DF804FBFFF7A0FFC7
:10095000FFF79EFFFFF79CFF003802400070004049
:1009600008B500F065FDFFF795FFFFF70BFEFFF7F9
:10097000CFFE00F0ABFD01F0FFFBFFF745FFFAE70C
:10098000FEE7FEE7FEE7FEE7FEE7704770477047C9
:1009900008B500F067FD08BD00B583B000210091E7
:1009A0000C4B5A6C42F480425A645A6C02F48042F6
:1009B0000092009A01911A6C42F080521A641B6CEA
:1009C00003F080530193019B072000F0ADFC03B0BE
:1009D0005DF804FB00380240002800F0DA8170B5B1
:1009E00082B00446036813F0010F3BD09F4B9B6815
:1009F00003F00C03042B2CD09C4B9B6803F00C03DE
:100A0000082B21D06368B3F5803F4FD0B3F5A02FFA
:100A100052D0964B1A6822F480321A601A6822F477
:100A200080221A606368002B50D000F027FD054635
:100A30008E4B1B6813F4003F14D100F01FFD401BC8
:100A40006428F5D90320ABE1884B5B6813F4800F71
:100A5000D8D0864B1B6813F4003F03D06368002B8B
:100A600000F09981236813F0020F54D07F4B9B68EC
:100A700013F00C0F3ED07D4B9B6803F00C03082B4A
:100A800033D0E368002B68D0794B01221A6000F064
:100A9000F5FC0546754B1B6813F0020F54D100F0AE
:100AA000EDFC401B0228F5D9032079E16F4A136859
:100AB00043F480331360B5E76C4B1A6842F480222C
:100AC0001A601A6842F480321A60ABE700F0D6FC74
:100AD0000546664B1B6813F4003FC3D000F0CEFC04
:100AE000401B6428F5D903205AE1604B5B6813F47E
:100AF000800FC6D15D4B1B6813F0020F03D0E36873
:100B0000012B40F04A81594A136823F0F803216908
:100B100043EAC1031360236813F0080F42D06369EE
:100B20006BB3534B0122C3F8802E00F0A7FC05469F
:100B30004E4B5B6F13F0020F34D100F09FFC401B53
:100B40000228F5D903202BE1484A136823F0F80363
:100B5000216943EAC1031360DDE7454B00221A60B7
:100B600000F08CFC0546414B1B6813F0020FD2D0FD
:100B700000F084FC401B0228F5D9032010E13C4B17
:100B80000022C3F8802E00F079FC0546374B5B6FDE
:100B900013F0020F06D000F071FC401B0228F5D9BB
:100BA0000320FDE0236813F0040F77D02F4B1B6C5C
:100BB00013F0805F33D1002301932C4B1A6C42F069
:100BC00080521A641B6C03F080530193019B012532
:100BD000284B1B6813F4807F23D0A368012B34D0EB
:100BE000052B38D0214B1A6F22F001021A671A6FB9
:100BF00022F004021A67A368002B3DD000F03EFCEF
:100C000006461A4B1B6F13F0020F46D100F036FC5C
:100C1000801B41F288339842F3D90320C0E00025BD
:100C2000D6E7144A136843F48073136000F026FC7F
:100C30000646104B1B6813F4807FCED100F01EFCDB
:100C4000801B0228F5D90320AAE0084A136F43F05D
:100C500001031367CFE7054B1A6F42F004021A67CE
:100C60001A6F42F001021A67C5E700BF0038024060
:100C7000000047420070004000F000FC06464F4B69
:100C80001B6F13F0020F08D000F0F8FB801B41F23D
:100C900088339842F3D9032082E0E5B9A369002B99
:100CA0007DD0464A926802F00C02082A51D0022BED
:100CB00017D0434B00221A6600F0E0FB04463F4B7E
:100CC0001B6813F0007F42D000F0D8FB001B022805
:100CD000F5D9032064E0394A136C23F08053136480
:100CE000DCE7374B00221A6600F0C8FB0546334BA1
:100CF0001B6813F0007F06D000F0C0FB401B0228E9
:100D0000F5D903204CE0E369226A1343626A43EA9F
:100D10008213A26A5208013A43EA0243E26A43EAB2
:100D20000263264A5360264B01221A6600F0A6FB96
:100D30000446224B1B6813F0007F06D100F09EFB97
:100D4000001B0228F5D903202AE0002028E000201B
:100D500026E0012B26D0194B5B6803F48001E26981
:100D6000914221D103F03F02216A8A421ED1616A79
:100D700047F6C0721A408A421AD103F44032A16A7F
:100D80008A4217D103F07063E26A934214D10020C3
:100D900006E001207047012002E0012000E0002071
:100DA00002B070BD0120FBE70120F9E70120F7E761
:100DB0000120F5E70120F3E70120F1E700380240C8
:100DC0000000474208B5314B9B6803F00C03042B2D
:100DD00057D0082B57D12D4B5A6802F03F025B6861
:100DE00013F4800F2AD0294B5968C1F3881C4FEAAD
:100DF0004C11B1EB0C006EEB0E0E4FEA8E1343EA72
:100E000090638101091A63EB0E03DB0043EA51731F
:100E1000C90011EB0C0C43F10003590200234FEA07
:100E20004C2041EADC51FFF72BFA184B5B68C3F307
:100E3000014301335B00B0FBF3F025E0134B59682D
:100E4000C1F3881C4FEA4C11B1EB0C006EEB0E0E97
:100E50004FEA8E1343EA90638101091A63EB0E0394
:100E6000DB0043EA5173C90011EB0C0C43F10003A2
:100E7000990200234FEA8C2041EA9C51FFF700FAC7
:100E8000D3E7034800E0034808BD00BF0038024034
:100E900000127A000024F400002800F09B8070B556
:100EA0000D4604464F4B1B6803F00F038B4208D2DC
:100EB000CBB24C4A1370136803F00F038B4240F01F
:100EC0008B80236813F0020F17D013F0040F04D0A7
:100ED000454A936843F4E0539360236813F0080F86
:100EE00004D0414A936843F4604393603E4A936858
:100EF00023F0F003A1680B439360236813F0010F04
:100F000032D06368012B21D09A1E012A25D9364A96
:100F1000126812F0020F61D033498A6822F003028E
:100F200013438B6000F0AAFA06462F4B9B6803F030
:100F30000C036268B3EB820F16D000F09FFA801B9F
:100F400041F288339842F0D9032042E0264A1268E1
:100F500012F4003FE0D101203BE0234A126812F076
:100F6000007FD9D1012034E01E4B1B6803F00F0332
:100F7000AB4207D9EAB21B4B1A701B6803F00F0390
:100F8000AB422DD1236813F0040F06D0164A9368A4
:100F900023F4E053E1680B439360236813F0080FD8
:100FA00007D0114A936823F46043216943EAC103DF
:100FB0009360FFF707FF0C4B9B68C3F303130B4AC7
:100FC000D35CD8400A4B18600A4B186800F00AFA44
:100FD000002070BD012070470120FAE70120F8E7EA
:100FE0000120F6E7003C024000380240544B000864
:100FF000480000204400002030B583B00446036858
:1010000013F0050F06D1236813F0020F2ED1002034
:1010100003B030BD4A4B00229A6600F02FFA054615
:10102000484B1B6813F0006F06D000F027FA431BF3
:10103000022BF5D90320EBE76268A3681B0743EA9C
:101040008213404AC2F884303D4B01229A6600F078
:1010500015FA05463B4B1B6813F0006FD3D100F027
:101060000DFA431B022BF5D90320D1E7002301938E
:10107000344B1A6C42F080521A641B6C03F080539C
:101080000193019B304A136843F48073136000F0AE
:10109000F5F905462C4B1B6813F4807F06D100F050
:1010A000EDF9431B022BF5D90320B1E7254B1B6F4C
:1010B00013F4407314D0E26802F440729A420FD0E5
:1010C000204B1A6F22F440721D490120C1F8400ED6
:1010D0000020C1F8400E1A671B6F13F0010F13D1E7
:1010E000E36803F44072B2F5407F1ED0154A93685E
:1010F00023F4F813936013490B6FE268C2F30B02F9
:1011000013430B67002083E700F0B8F905460D4B49
:101110001B6F13F0020FE3D100F0B0F9401B41F256
:1011200088339842F3D9032072E706498A6822F48B
:10113000F81223F0704323F4407313438B60DAE713
:1011400000004742003802400070004000230F2B8F
:1011500000F2DA80F0B583B03AE0072200E0002226
:10116000AA4032430234694D45F82420684A146885
:101170006FEA0C0224EA0C054E6816F4803F01D099
:101180004CEA0405624C2560646802EA04054E6876
:1011900016F4003F01D04CEA04055D4C6560A4687C
:1011A00002EA04054E6816F4801F01D04CEA0405DB
:1011B000574CA560E46822404D6815F4001F01D02B
:1011C0004CEA0402524CE26001330F2B00F29A8089
:1011D00001229A400C6804EA020C32EA0404F3D1BA
:1011E0004C68651E012D03D9112C01D0122C12D18F
:1011F00085685E000324B44025EA0405CC68B44049
:101200002C438460456825EA02054C68C4F300124B
:101210009A402A434260C5684FEA430E032404FA09
:101220000EF4E24325EA04058C6804FA0EF42C431C
:10123000C4604C68022C01D0122C0FD1DD08083597
:1012400050F8257003F00704A6000F24B44027EAE5
:1012500004070C69B4403C4340F82540046814403E
:101260004A6802F0030202FA0EF2224302604A6860
:1012700012F0805FA8D000220192264A546C44F4F8
:1012800080445464526C02F480420192019A9C089A
:10129000A51C1E4A52F8256003F0030295000F2298
:1012A000AA4026EA02061C4A90423FF458AF02F5D3
:1012B000806290421AD002F58062904218D002F506
:1012C0008062904216D002F58062904214D002F5FE
:1012D0008062904212D002F58062904210D002F5F6
:1012E000806290423FF439AF082239E7012237E7A4
:1012F000022235E7032233E7042231E705222FE7F4
:1013000006222DE703B0F0BD704700BF0038014052
:10131000003C014000380240000002400AB18161F7
:101320007047090481617047074AD36823F4E0637A
:101330001B041B0C000200F4E060034343F0BF6396
:1013400043F40033D360704700ED00E000B5194B63
:10135000DB68C3F30223C3F1070CBCF1040F28BF01
:101360004FF0040C03F1040EBEF1060F18D9033B35
:101370004FF0FF3E0EFA0CFC21EA0C0199400EFAE8
:1013800003F322EA0303194300280BDB0901C9B266
:1013900000F1604000F5614080F800135DF804FB47
:1013A0000023E5E700F00F000901C9B2024B195410
:1013B000F4E700BF00ED00E014ED00E00138B0F10B
:1013C000807F0BD24FF0E0235861054AF02182F86C
:1013D00023100020986107221A617047012070478E
:1013E00000ED00E010B504460E4B18784FF47A7308
:1013F000B3FBF0F30C4A1068B0FBF3F0FFF7DEFF2D
:1014000068B90F2C01D901200AE0002221464FF0D3
:10141000FF30FFF79BFF054B1C60002000E0012020
:1014200010BD00BF40000020480000204400002004
:1014300008B50B4B1A6842F400721A601A6842F43D
:1014400080621A601A6842F480721A600320FFF703
:101450006BFF0020FFF7C6FFFFF79EFA002008BDD4
:10146000003C0240034A1168034B1B780B44136095
:10147000704700BFF800002040000020014B1868B2
:10148000704700BFF800002038B50446FFF7F6FFAC
:101490000546B4F1FF3F02D0044B1B781C44FFF714
:1014A000EDFF401BA042FAD338BD00BF4000002032
:1014B000054BD3F8882042F47002C3F888204FF01F
:1014C00000629A60704700BF00ED00E008B50A4B6B
:1014D000187800B108BD00F0DDF918B1064B012203
:1014E0001A70F7E74FF0E023D3F8F03D13F0010F47
:1014F000F0D000BEEEE700BFFC000020014B1878E2
:10150000704700BFFC0000204FF0000C94451AD239
:1015100010B507E091F800E0F4441FFA8CFC714428
:1015200094450FD291F801E0BEF1050FF2D191F888
:1015300002E00EF07F0400EB44044FEADE1E04F8E4
:101540000E30E7E710BD704738B50546204C37220E
:101550000021204602F036FB4FF0FF33C4F8033081
:10156000C4F80730C4F80B30C4F80F30C4F8133097
:10157000C4F81730C4F81B30C4F81F30A4F8233067
:1015800000F0A8FF00240EE004EB4403114A1268A7
:1015900002EBC30302E0234610E000235B68284609
:1015A00098470134E4B20C4B1B78A3420ED30B4A8C
:1015B000002AF0D0A342E7D8E31ADBB2002BECD12B
:1015C00003EB4303064A02EBC303E7E738BD00BF62
:1015D000080100200001002004010020000000009C
:1015E000644B000870B505460C461646C86800F006
:1015F0007BFFE368324600212846984770BD000013
:101600002DE9F0470746481EC0B202F04FFA18B164
:1016100081464378022B0AD04FF0E023D3F8F03D07
:1016200013F0010F00D000BE0020BDE8F087C279A2
:10163000C2F340105B4B197860F304111970C2F3C8
:101640008012C9B262F34511197009F10905B9F8A0
:101650000230994483E02B78A8461D4487E04FF080
:10166000E023D3F8F03D13F0010F00D000BE0020BE
:10167000DBE704EB44034C4A126802EBC30302E0CD
:10168000234614E000239B68324629463846984793
:101690008246A0B90134E4B2444B1B78A3425AD32A
:1016A000434A002AECD0A342E3D8E31ADBB2002B72
:1016B000E8D103EB43033F4A02EBC303E3E7082807
:1016C00019D9864217D3AA78364B1344DB78FF2BFF
:1016D0001BD1344B1344DC70B8F1000F34D098F8B0
:1016E0000220AB789A421AD198F804206B799A427A
:1016F00015D1012324E04FF0E023D3F8F03D13F09F
:10170000010F00D000BE00208FE74FF0E023D3F898
:10171000F03D13F0010F00D000BE002085E74FF030
:10172000E023D3F8F03D13F0010F00D000BE0020FD
:101730007BE7AA7899181B4A0A44D4700133DBB2BC
:1017400098F803209A42F4D82346524629461A486C
:10175000FFF7DAFE5544154B1B78A34210D34D45D5
:1017600018D26B780B2B3FF476AF4FF000086B78F4
:10177000042B7FF474AFA9EB0506B6B200248BE707
:101780004FF0E023D3F8F03D13F0010F00D000BE7E
:1017900000204AE7094B1BB1FFF716F8012044E788
:1017A000012042E708010020000100200401002080
:1017B00000000000644B00081B010020C90700085E
:1017C00038B505460C464A88130AD0B2013B0E2BA9
:1017D00053D8DFE803F0081D3152523C52525252A6
:1017E00052525252110002F05DF902461223214674
:1017F000284600F027FE41E0244B002B3FD0AFF3FA
:101800000080024643882146284600F01BFE35E052
:1018100002F04CF9024628B143882146284600F0E0
:1018200011FE2BE04FF0E023D3F8F03D13F0010F51
:1018300000D000BE002021E0898802F03BF902467A
:10184000F8B103782146284600F0FCFD16E0104B65
:10185000CBB1AFF30080024628B103782146284679
:1018600000F0F0FD0AE04FF0E023D3F8F03D13F074
:10187000010F00D000BE002000E0002038BD002095
:10188000FCE70020FAE70020F8E700BF00000000B6
:101890000000000010B5372200211D4802F092F927
:1018A0001C4C201D01F000FB1B4B1C601B4B23B18B
:1018B0001B48AFF300801B4B186000240DE004EBC5
:1018C0004403184A126802EBC30302E023460FE008
:1018D00000231B6898470134E4B2114B1B78A342E4
:1018E0000ED30E4A002AF1D0A342E8D8E31ADBB2A5
:1018F000002BEDD103EB43030B4A02EBC303E8E7F4
:10190000002001F09DFE002001F080FE012010BDAE
:10191000080100204C0000204001002000000000D1
:101920000401002000010020644B000870B504464B
:101930000D464378023B032B00F29480DFE803F06E
:1019400002073965584B1B7813F0010F00D170BDA9
:10195000554B1A786FF300021A701A786FF3410230
:101960001A70002159701A7861F382021A704F4B75
:101970001E6815B93378012B13D02146301D01F0B4
:1019800034FA044615B93378012B0ED0002CDED181
:101990004FF0E023D3F8F03D13F0010FD7D000BE95
:1019A000D5E7084601F038FEE7E7002001F02EFEFB
:1019B000ECE73D4B1B7813F0010FC8D03A4A13787F
:1019C00043F004031370394B1E6811B93378012BAF
:1019D00013D02146301D01F008FA044615B93378BA
:1019E000012B0ED0002CB2D14FF0E023D3F8F03D04
:1019F00013F0010FABD000BEA9E7002001F00CFEF0
:101A0000E7E7002001F002FEECE7274B1B7813F01C
:101A1000010F9CD0244A13786FF382031370234B79
:101A20001E6811B93378012B14D02146301D01F006
:101A3000DCF9044615B93378012B0FD0002C86D180
:101A40004FF0E023D3F8F03D13F0010F3FF47FAFE8
:101A500000BE7CE7002001F0DFFDE6E7002001F09A
:101A6000D5FDEBE7114B1E6829B93378012B02D164
:101A7000002001F0D1FD2146301D01F0B6F90446E9
:101A80002DB93378012B02D1002001F0BFFD002CCD
:101A90007FF45DAF4FF0E023D3F8F03D13F0010F7A
:101AA0003FF455AF00BE52E708010020400100207E
:101AB00000B585B000230193029303938DF80400D1
:101AC0008DF80510114601A8FFF730FF05B05DF84D
:101AD00004FB00B585B000230193029303938DF8B6
:101AE000040001238DF805308DF80810114601A877
:101AF000FFF71CFF05B05DF804FB00B585B00023BF
:101B00000193029303938DF8040006238DF80530AA
:101B100002AB0868496803C3114601A8FFF706FF36
:101B200005B05DF804FB10B584B000240194029464
:101B300003948DF8040007208DF805008DF8081037
:101B400003928DF809309DF8181001A8FFF7EEFEFA
:101B500004B010BD08B5CB7803F00303022B23D0EB
:101B6000032B4AD0012B01D0002008BD304B9B78BD
:101B7000022B0CD040F2FF3C0B794A7902F00702AD
:101B800043EA0223634505DC01F0ACFDEDE74FF4C9
:101B9000806CF1E74FF0E023D3F8F03D13F0010F34
:101BA00000D000BE0020E0E7214B9B78022B11D033
:101BB0000B794A7902F0070243EA0223402BE3D96A
:101BC0004FF0E023D3F8F03D13F0010F00D000BE3A
:101BD0000020CAE70B794A7902F0070243EA0223A0
:101BE000B3F5007FD0D04FF0E023D3F8F03D13F0F1
:101BF000010F00D000BE0020B7E70D4B9B78022BF1
:101C000013D04FF0400C0B794A7902F0070243EAF7
:101C100002236345B8DD4FF0E023D3F8F03D13F025
:101C2000010F00D000BE00209FE74FF4806CEAE770
:101C30000801002000B501F07F0C4FEAD11E114BC6
:101C400003EB4C0303EBD11191F8253013F0010F96
:101C500006D120314B7913F0040F10D0002200E0A0
:101C6000002210464AB1074B03EB4C03734493F830
:101C7000252042F0040283F825205DF804FB0122B0
:101C8000EFE700BF0801002000B501F07F0C4FEA2C
:101C9000D11E114B03EB4C0303EBD11191F825300E
:101CA00013F0010F06D120314B7913F0040F10D13E
:101CB000002200E0002210464AB1074B03EB4C0320
:101CC000734493F825206FF3820283F825205DF892
:101CD00004FB0122EFE700BF0801002070B501F00E
:101CE0007F051A4C04EB450C0CEBD11C9CF82540ED
:101CF00014F0010F09D04FF0E023D3F8F03D13F0BA
:101D0000010F00D000BE002070BDCE090F4C04EBC7
:101D10004504344494F825C04CF0010C84F825C0E7
:101D2000203401F0A3FD0028EED163796FF30003A6
:101D3000637163796FF3820363714FF0E023D3F82B
:101D4000F03D13F0010FDFD000BEDDE708010020F9
:101D500038B501F07F05CC0901F0DAFD084B03EB43
:101D60004503234493F8252042F0020283F82520FE
:101D700093F8252042F0010283F8252038BD00BFEA
:101D80000801002038B501F07F05CC0901F0C5FD40
:101D9000084B03EB4503234493F825206FF34102DE
:101DA00083F8252093F825206FF3000283F825207F
:101DB00038BD00BF0801002001F07F02044B03EB97
:101DC000420303EBD11191F82500C0F340007047A6
:101DD0000801002070B582B005460C46002000F0D6
:101DE00083FB237803F06003602B16D0402B1FD0B9
:101DF000227802F01F02012A00F0E480022A00F09B
:101E00001F8112B34FF0E023D3F8F03D13F0010F20
:101E100000F0AD8100BE002008E04FF0E023D3F8D1
:101E2000F03D13F0010F00D000BE002002B070BDE5
:101E3000A74B002B00F08781184600F055FB224687
:101E400000212846AFF30080F0E7202B0CD0002BB8
:101E500031D16378092B00F2AA80DFE803F0958581
:101E6000A875A83670A84552A388DBB20F2B00F2E4
:101E70006C81984A1344DB78974A2AB1974A1278C2
:101E8000934211D39B1ADBB2002B40F0608103EB2D
:101E90004303934901EBC301002900F05A81224614
:101EA0002846FFF79FFBC1E703EB43038D4A116808
:101EB00001EBC301F0E74FF0E023D3F8F03D13F05E
:101EC000010F00D000BE0020B0E7204600F012FB5A
:101ED0006188C9B2284601F00BFD7E4A137843F0B1
:101EE000020313700120A1E77A4B5B788DF806306E
:101EF00001230DF106022146284600F0A3FA012035
:101F000094E76688F6B2734B5B7803B93EB9714BC0
:101F10005E702146284600F07BFA012086E73146B4
:101F20002846FFF76DFB0028F1D14FF0E023D3F8EE
:101F3000F03D13F0010F3FF479AF00BE76E7214684
:101F40002846FFF73DFC71E76388012B01D0002094
:101F50006CE7604A137843F0080313702146284663
:101F600000F056FA012061E76388012B01D00020C0
:101F70005CE7584B1A786FF3C3021A702146284663
:101F800000F046FA012051E7524B1A78930803F00B
:101F90000203C2F340121343ADF8063002230DF1E1
:101FA00006022146284600F04DFA01203EE74FF098
:101FB000E023D3F8F03D13F0010F00F0CC8000BE19
:101FC000002033E7A388DBB20F2B00F2C680414A22
:101FD0001344D978404B2BB1404B1B78994228D3FE
:101FE000C91AC9B2002940F0BA8001EB41013C4B4B
:101FF00003EBC101002900F0B48022462846FFF718
:10200000F1FA00287FF412AF237813F0600F7FF409
:102010000DAF63780A2B7FF409AF00238DF80630EB
:1020200001230DF106022146284600F00BFA01209B
:10203000FCE601EB41012B4B1B6803EBC101D9E727
:10204000A288D1B202F07F0CC2F3C012BCF1080F1B
:102050001BD8204800EB4C000244D27C1E4828B11B
:102060001E48007882421AD3121AD2B2F2B902EB99
:1020700042021B4E06EBC206D3B1002E73D022469D
:1020800031462846FFF7AEFAD0E64FF0E023D3F80A
:10209000F03D13F0010F00D000BE0020C6E602EBB9
:1020A00042021048066806EBC206E5E70026E3E7B1
:1020B0006378012B26D0032B24D0ABB14FF0E02363
:1020C000D3F8F03D13F0010F00D000BE0020ADE6C4
:1020D00000000000080100200000000004010020B2
:1020E000644B0008000100202846FFF765FEADF8AC
:1020F000060002230DF106022146284600F0A2F94F
:10210000012093E6628822B9012B18D02846FFF7F8
:102110001FFE56B3224631462846FFF763FA0020D9
:1021200000F0E2F9134B93F8263013F001007FF42E
:102130007DAE2146284600F06BF9012076E6284660
:10214000FFF720FEE5E7002070E600206EE60020A5
:102150006CE600206AE6002068E6002066E60020C3
:1021600064E6002062E6002060E601205EE60020D2
:102170005CE600BF0801002030B585B0FFF7BEF96E
:1021800088B905B030BD002001F046FA10E000200B
:1021900001F03CFA14E09DF80400FFF7D5F99DF832
:1021A00008207D4B9A707D4B1D682B78012BEAD05F
:1021B00001A9281D00F0E9FD04462B78012BE6D08B
:1021C000002CDED09DF80530013B072B00F2D980B2
:1021D00001A252F823F000BF97210008F92100085E
:1021E0007123000803230008192300080D220008AA
:1021F0006B220008752300089DF80400FFF7A4F97E
:10220000674B002BCFD0FEF7E7FACCE7624B1A788A
:1022100042F001021A7093F825206FF3000283F850
:10222000252093F825206FF3820283F8252093F868
:1022300026206FF3000283F8262093F826206FF300
:10224000820283F8262002A99DF80400FFF7C2FD50
:102250000028A8D100219DF8040001F059FB80213D
:102260009DF8040001F054FB9DE79DF8081001F073
:102270007F00CC09484B03EB400303EBD11393F8E9
:1022800025206FF3000283F8252093F825206FF3B3
:10229000820283F82520D8B13F4B03EB400323444F
:1022A000DB7C404A2AB1404A1278934218D39B1AE9
:1022B000DBB2E3B903EB43033C4A02EBC303B3B124
:1022C0001C69039B9DF809209DF80400A0476AE75C
:1022D000039B9DF809209DF8040000F019F962E7BE
:1022E00003EB4303324A126802EBC303E7E74FF004
:1022F000E023D3F8F03D13F0010F3FF442AF00BEEE
:102300003FE72C4B002B3FF44EAF234B1878C0F324
:10231000C000FEF769FA46E7274B002B3FF443AFB6
:10232000FEF76AFA3FE704EB4403214A126802EB26
:10233000C30302E0234613E000235B6913B19DF859
:10234000040098470134E4B2174B1B78A342FFF412
:102350002AAF144A002AEDD0A342E4D8E31ADBB234
:10236000002BE9D103EB4303104A02EBC303E4E77C
:102370000024E9E7029B002B3FF415AF0398984730
:1023800011E74FF0E023D3F8F03D13F0010F3FF4D5
:102390000AAF00BE07E700BF08010020400100208F
:1023A000D90700080000000004010020644B000869
:1023B00000010020E9070008F9070008F8B5054604
:1023C000114B9F89DE89BC1BA4B2402C28BF40243E
:1023D00093F90030002B08DB0021B74211D00B4AE3
:1023E00023462846FFF77AFCF8BDB74201D1802189
:1023F000F3E72246044B9968044801F0D5FB80219D
:10240000EBE70022ECE700BF0402002018020020E6
:1024100008B586460B460A4A944608684968ACE8FF
:10242000030000219160D181918193F900308B42AA
:1024300000DB802100231A467046FFF74FFC08BDE1
:102440000402002038B505468C46214CA646086893
:102450004968AEE80300A2600021E181BCF80610E3
:102460008B4228BF0B46A381BCF80610C9B103B14B
:1024700022B12846FFF7A2FF50B138BD4FF0E0234C
:10248000D3F8F03D13F0010F00D000BE0020F4E7B8
:102490004FF0E023D3F8F03D13F0010FEDD000BE74
:1024A000EBE79CF90030002B10DB802100231A465B
:1024B0002846FFF713FC0028DFD14FF0E023D3F8C4
:1024C000F03D13F0010FD8D000BED6E70021EDE7B4
:1024D00004020020034B00221A605A609A60DA60FE
:1024E0001A61704704020020014B1861704700BF59
:1024F000040200200146054B1A460068496803C2E1
:1025000000229A60DA819A81704700BF040200209D
:1025100038B505461C46394B1B78DB09B3EBD11F98
:1025200018D04CB14FF0E023D3F8F03D13F0010F79
:1025300000D000BE002038BD314B13B12F49AFF39E
:1025400000802E4B1B691BB12C4A0221284698475C
:102550000120F0E7294B93F90030002B07DB274BD4
:102560009868002848D02246264901F01DFB234ADE
:10257000D38923449BB2D381916821449160D2884E
:10258000934201D03F2C29D81C4B1B6923B11B4A15
:10259000012128469847B8B1184B93F90030002B19
:1025A00010DB802100231A462846FFF797FB0028FE
:1025B000C1D14FF0E023D3F8F03D13F0010FBAD0B2
:1025C00000BEB8E70021EDE70021284601F0A0F9A0
:1025D0008021284601F09CF90120ACE72846FFF74E
:1025E000EDFE0028A7D14FF0E023D3F8F03D13F023
:1025F000010FA0D000BE9EE700209CE7040200204F
:10260000000000001802002038B50446051D2846C9
:1026100000F0AAFB3F2800D838BDA1780020FFF7C2
:1026200009FB0028F8D0284600F09EFB3F2807D978
:10263000402304F1B802A1780020FFF74FFBEBE73D
:10264000A1780020FFF720FBE6E770B5044600F113
:102650001805284600F078FB08B9002070BD6178A5
:102660000020FFF7E7FA08B90020F7E704F1F806C1
:1026700040223146284600F09FFB054690B10346B4
:10268000324661780020FFF729FB48B94FF0E0237C
:10269000D3F8F03D13F0010F00D000BE0020DDE7BD
:1026A0002846DBE761780020FFF7EEFA0020D5E747
:1026B00008B5044B4FF49C7202FB0030043000F06C
:1026C00043FB08BD5802002038B5094C4FF49C73F9
:1026D00003FB00440422A01800F06EFB05462046D0
:1026E000FFF792FF042D14BF0020012038BD00BF6A
:1026F000580200202DE9F04790461F467C4A4FF4CF
:102700009C7300FB03F302EB030AD35C002B00F085
:10271000ED8005468946002675E0F72A08D0744BFF
:102720004FF49C7202FB0533042283F8B1205EE073
:102730006F4B4FF49C7202FB0533052283F8AC20EB
:1027400083F8B10053E041EA0911694B4FF49C72E0
:1027500002FB053383F8AC10042283F8B12046E075
:10276000F02A11D0F12A1AD0F32A18D0F22A22D056
:102770005F4B4FF49C7202FB0533052283F8AC20BB
:10278000022283F8B12032E0594B4FF49C7202FBD5
:102790000533042283F8AC2083F8B12027E0544BA2
:1027A0004FF49C7202FB0533022283F8AC20032213
:1027B00083F8B1201BE04E4B4FF49C7202FB0533B3
:1027C000032283F8AC20042283F8B1200FE0484BA9
:1027D0004FF49C7101FB0533191981F8AC200134C9
:1027E000E4B283F8B04093F8AC30042B47D0404BB0
:1027F0004FF49C7202FB053393F8B02093F8B1308C
:102800009A4249D00136BE4260D218F80620384BB1
:102810004FF49C7101FB053393F8B040002CD6D1E6
:102820001109334B4FF49C7000FB053383F8AD2046
:10283000022083F8B00093F8AC30042B3FF46DAF66
:10284000A1F10803DBB2032B7FF67DAF0E293FF425
:102850007AAF0F2984D04FEA091242F00F02244BBD
:102860004FF49C7101FB053383F8AC20002283F800
:10287000AE2083F8AF20022283F8B120B7E7F72A11
:10288000B5D1E21C1A4B4FF49C7101FB053383F860
:10289000AC2083F8B140AAE715484FF49C7305FBC0
:1028A00003F303F1A801014418330422114418442E
:1028B00000F0C2FA032808D90D4B4FF49C7202FBBA
:1028C0000533002283F8B0209CE728B95046FFF773
:1028D000BCFE3046BDE8F0874FF0E023D3F8F03D72
:1028E00013F0010F00D000BE0026F2E70026F0E74B
:1028F00058020020F0B583B04FF49C7200211348B9
:1029000001F060F900250DB103B0F0BD0F4E4FF49A
:102910009C7405FB04F404F12801314430190027AC
:102920000097012340220431043000F0F7F904F14C
:102930006801314404F1180000970123402204315A
:10294000304400F0EBF90135EDB2DCE7580200202D
:1029500070B5002404B170BD094E4FF49C7504FBA2
:1029600005F5701900237351043000F09DFA05F14C
:102970001800304400F098FA0134E4B2EAE700BFEE
:10298000580200202DE9F0474B79012B76D10646FD
:1029900015468B79012B75D1CB79002B74D10C782E
:1029A000A3B20C446278242A06D1AB4204D8227820
:1029B00013449BB21444F5E7042A67D16279012AD3
:1029C00066D1A279032A65D194F80780B8F1000F87
:1029D00062D1424652B14FF00009A27889F8002036
:1029E00094F800A053449FB2A2442DE017462B490F
:1029F0004FF49C7000FB0211497821B9274900FB74
:102A00000211897811B10132D2B2E3E7234A00FB07
:102A10000729E2E74FF0E023D3F8F03D13F0010F70
:102A200000D000BE00272AE089F801309AF8002083
:102A3000D3199FB2924408F101085FFA88F89AF816
:102A40000020D3199FB292442379434512D9AF4253
:102A500010D89AF80130052BF1D151463046FFF7D6
:102A600079F80028D6D09AF80230DA09DCD189F852
:102A70000230DBE74846FFF7C7FD00E00027384695
:102A8000BDE8F0870027FAE70027F8E70027F6E718
:102A90000027F4E70027F2E70027F0E758020020BC
:102AA00000207047F8B506461F4600244CB1B4B963
:102AB000AB788B421DD06B788B422AD00124204604
:102AC000F8BD264D4FF49C7303FB0455AB788B4245
:102AD000EDD06B788B42EAD00134E4B2E6E74FF0F8
:102AE000E023D3F8F03D13F0010F00D000BE002426
:102AF000E5E7BAB205F1B801281D00F09DF9184BC1
:102B000013B12046AFF300802846FFF77DFD012476
:102B1000D5E72846FFF799FD08B10124CFE705F175
:102B2000180000F011F9A0B9AFB117F03F0F01D0B4
:102B30000124C4E769783046FFF77CF8044608B9F9
:102B40000124BCE700231A4669783046FFF7C6F82F
:102B5000B5E70124B3E70124B1E700BF5802002024
:102B60000000000001EB020C43899C4504DD8089D4
:102B700010FA8CF080B27047114488B27047A1EB14
:102B8000020C43899C4505DD1FFA8CF18089081AE7
:102B900080B27047891A88B2704710B50446FFF7B3
:102BA000E1FFA38801E0C01A80B28342FBD910BDC7
:102BB0002DE9F84305460E4617461946BDF8208014
:102BC000A3EB0804A4B2434502D28389E41AA4B259
:102BD000B5F80490A14505D24A462846FFF7CFFF35
:102BE00028824C468CB1B44201D800200EE0324617
:102BF00041462846FFF7D1FF2968EA8802FB001109
:102C0000384600F0D1FF012000E00020BDE8F88345
:102C1000F8B504460F46154699188288914209DC9A
:102C20000068E18801FB05F201FB0301384600F072
:102C3000BBFFF8BDD21A96B20068E18806FB01F22C
:102C400001FB0301384600F0AFFFE088AA1B00FB40
:102C500002F2216800FB067000F0A6FFE9E72DE90B
:102C6000F84305460E4690461F46BDF82010BDF8B5
:102C700024000C1AA4B2814202D2AB89E41AA4B295
:102C8000B5F80490A14507D24A462846FFF777FFDA
:102C90002882288A80B24C468CB1B44214D9A41B35
:102CA000A4B2BC420ED254B1324601462846FFF7C8
:102CB00074FF0346224641462846FFF7A9FF2046F7
:102CC000BDE8F8833C46EFE70024F8E7F8B5044692
:102CD0000F46154699188288914209DC0668C0881B
:102CE00000FB05F2394600FB036000F05DFFF8BD14
:102CF000D21A96B20068B4F806C006FB0CF2394648
:102D00000CFB030000F050FFE188AA1B01FB02F25C
:102D100001FB0671206800F047FFE8E7B2F5004FBD
:102D200010D801608280C3809DF800300372520089
:102D3000013A92B24281D24382810023C38103824D
:102D400001207047002070470246B0F80EC01FFAFD
:102D50008CFC018A89B2ACEB010398B28C4502D29B
:102D60009389C01A80B27047C18989B2028A92B22F
:102D7000B0F804C08B1A9BB2914202D280891B1A10
:102D80009BB2ACEB030080B2704730B583B0044611
:102D90000A46C389058AADB200959BB20021FFF7B0
:102DA00007FF0546218A82B289B22046FFF7DAFE84
:102DB0002082284603B030BD70B582B00446134669
:102DC000C589ADB2068AB6B2019600950A460021C1
:102DD000FFF745FF0546218A024689B22046FFF7E4
:102DE000C1FE2082284602B070BD70B504460E4672
:102DF000C589ADB2028A92B2AB1A9BB2AA4202D97D
:102E000082899B1A9BB2A2889A4201D1207A90B102
:102E1000002229462046FFF7C0FE2368E28831469B
:102E200002FB003000F0C0FE012229462046FFF7D9
:102E300099FEE081012070BDF8B5044610468AB3C2
:102E40000E46E789BFB2238A9BB2227AFAB9A588D7
:102E5000FA1A92B29F4202D2A389D21A92B2AD1A42
:102E6000ADB2854228BF0546002239462046FFF70D
:102E700094FE03462A4631462046FFF727FF2A469E
:102E800039462046FFF76EFEE0812846F8BDA5884A
:102E9000854205D2401BE28802FB0016E381E3E78E
:102EA0000546E1E71546F0E70023C38103828388E6
:102EB0005B00013B9BB24381DB4383810120704770
:102EC00000231A460AE003EB4301C8000849014405
:102ED000C9888A4238BF0A460133DBB2032BF2D9D4
:102EE00093085B0017339BB24FF0A04253627047C8
:102EF000A0030020C36823F47053C360022924D0C8
:102F00001F4B1B681F4A934224D21F4A934227D863
:102F10001E4A934226D21E4A934225D8A2F5DB12BE
:102F2000A2F5BA52934221D8A2F5B712A2F558726F
:102F300093421DD8174A93421CD2174A93421BD280
:102F4000164A93421AD30E2205E0C36843F4105385
:102F5000C36070470622C36843EA8223C360704798
:102F60000722F8E70822F6E70922F4E70A22F2E747
:102F70000B22F0E70C22EEE70D22ECE70F22EAE746
:102F8000480000200048E801DF9DA30100366E01E3
:102F90003FA44C01807306010024F400C0E1E4006A
:102FA000044B9B6813F0060F01D0002070470220ED
:102FB000704700BF00080050012809D00321064BCC
:102FC0001A6822F003021A601A68114319607047E8
:102FD000023918BF0121F2E70008005030B5BDF8F2
:102FE0000C008C4691B9474D35F8124002EB420176
:102FF0000CEB4C00C00000EB810143480144C88841
:10300000A04228BF2046241A25F81240012A20D0C9
:103010004FEA4C1101F1A04101F5306ED1F8104B8F
:1030200004F06044C1F8104BD1F8104B40EAC340A3
:103030002043C1F8100BD1F8003B43F00443C1F822
:10304000003BD1F8003B03F44023B3F5802F3CD084
:1030500030BD4FEA4C1101F1A04140EAC343C1F831
:103060001039D1F8003943F00443C1F80039D1F8E0
:10307000003903F44023B3F5802F0AD00028E7D0AD
:1030800022494B6B012202FA0CFC43EA0C034B630E
:10309000DEE702EB42020CEB4C03DB0003EB8202A7
:1030A000194B1A44137A012BE8D1184B9A68D1F8BE
:1030B000003912F4807F05D04FF080521343C1F8DD
:1030C0000039DBE74FF00052F8E702EB42020CEB6D
:1030D0004C03DB0003EB82020B4B1A44137A012BE7
:1030E000B6D10A4B9A68D1F8003B12F4807F05D024
:1030F0004FF080521343C1F8003BA9E74FF0005254
:10310000F8E700BF9C030020A00300200008005047
:1031100001F07F03C9091BD1002B00F0818010B49E
:10312000590101F1A04101F53060D1F8004B002CAC
:1031300055DB5B0103F1A043D3F8001B002A4CD000
:103140004FF400120A43C3F8002B5DF8044B70479C
:103150004BB14FEA431C0CF1A04C0CF51061DCF8AC
:10316000000900281EDB590101F1A041D1F8000936
:10317000AAB14FF002620243C1F800294FF0A04209
:10318000116941EA83131361136943F0200313614A
:103190004FF0A0431B6913F0200FF9D170474FF097
:1031A0000062E8E7DCF8000940F00060CCF80009B4
:1031B000886810F0400FFBD0DCF8000952B11F4ABC
:1031C0000243CCF800298A6812F0020FFBD00222D9
:1031D0008A60D3E74FF08042F2E70022B2E7184C52
:1031E000636843F4007363604FF0A0435B6913F0BE
:1031F000800FF9D0D1F8003B7AB1104A1343C1F8DF
:10320000003B836813F0020FFBD0022383600C4A5B
:10321000536843F48063536097E74FF08042EDE7D3
:103220005B0103F1A043D3F8001B2AB14FF4001255
:103230000A43C3F8002B70470022F9E70000204042
:103240000008005000B54FEA920E00200FE0124B2C
:103250001B680B704FEA132C81F801C04FEA134C26
:1032600081F802C01B0ECB700431013080B2704572
:10327000EDD3D0B212F003020BD0074B1B680B70DA
:1032800010F0020F01D0180A4870022A01D91B0C55
:103290008B705DF804FB00BF0010005010B501F505
:1032A000A02E0EF1010E4FEA0E3E9C08002011E008
:1032B00092F803C09178090441EA0C6192F801C0C8
:1032C00041EA0C2112F804CB41EA0C01CEF80010BF
:1032D000013080B2A042EBD3D8B213F003030DD07B
:1032E000117810F0020F02D0507841EA0021022B31
:1032F00002D9937841EA0341CEF8001010BD0000D6
:103300002DE9F8430D464FF0A0431C6AC4F3434334
:1033100004F00F06C4F30A14013B052B39D8DFE88B
:1033200003F02F032F293831DFF8848006EB46079E
:103330004FEAC70908EBC707224658F80910FFF7FC
:1033400081FF58F80930234448F80930FB88A3422C
:1033500016D905EB46110869C0F31200BB881B1A89
:103360009BB2BB8066B90F4804881B1BBB8000233F
:10337000038005E001EB46110B6943F0C0430B618C
:10338000BDE8F883084A1168084B196012685A6052
:10339000F6E74FF0E023D3F8F03D13F0010FEFD044
:1033A00000BEEDE79C0300200010005094030020B5
:1033B000A003002008B5602200211E4800F002FC96
:1033C00000231D4A13700AE05A0102F1A042D2F80C
:1033D000001B41F00061C2F8001B0133DBB2032B7C
:1033E000F2D9164BDA6942F00112DA615A6942F0F9
:1033F00009025A611A6942F009021A614FF0A043AA
:1034000037225A620E4A102111800E4A9A620E49E2
:103410000A6822F003020A60064A40215182D180E4
:103420000A490A6942F0C0420A619A6942F440229C
:103430009A6108BDA00300209203002000080050FC
:10344000900300203001100000090050000B0050D4
:103450002DE9F04383B080460E461746002417E05E
:103460000823AB6001221E494046FEF746FB1FE0E1
:1034700009EB49091B4B03EBC90901230093002306
:10348000B9F8042021464046FEF74DFB0134E4B272
:10349000032C21D8A146B56904F110020123934001
:1034A0001D42F3D007EB4415AB6813F0080FD7D1DA
:1034B000AB6813F0010FE9D00123AB60002CD7D12A
:1034C000094B1B88002BD3D00093012300222146F7
:1034D0004046FFF783FDD9E703B0BDE8F08300BFA6
:1034E00094030020A00300209C0300202DE9F04F4E
:1034F00087B003908B46029200241BE005EB450247
:103500003F4B03EBC202012300930023128A44F0D5
:1035100080010398FEF707FBD8F8083013F0800FFE
:1035200006D0DBF834300122AA400492134223D1A2
:103530000134E4B2032C60D82546DBF818200123BF
:10354000A3401A42F4D0029B03EB4418D8F8083089
:1035500013F0010FE0D00123C8F80830002CCDD1C2
:10356000284B5B88002BC9D0009301231A462146C3
:103570000398FFF733FDCFE7D8F81030C3F3C94AFB
:103580004FF00009CDF814B0DDF80CB0D14524D2CD
:10359000D8F810309BB205EB4502194901EBC20285
:1035A000568A9E4228BF1E46D8F81820164B03EABA
:1035B00082039E4211D805EB450701EBC70733464E
:1035C000FA6821465846FFF769FEFB683344FB6002
:1035D00009F101091FFA89F9D8E7DDF814B0D8F824
:1035E0001030C3F31203002BA2D1DBF83430049A5D
:1035F00023EA0203CBF834309AE707B0BDE8F08F36
:10360000A00300209C030020FCFF0300014B0822C4
:103610009A60704700E100E0044B0822C3F888205C
:10362000BFF34F8FBFF36F8F704700BF00E100E023
:10363000024A536823F002035360704700080050A9
:1036400038B505460121244800F0C4FA012D3BD0CD
:103650004FF0A042D36843F04003D3604FF0A04343
:103660001B69002BFADA4FF0A042136943F0010303
:1036700013614FF0A0431B6913F0010FF9D14FF014
:10368000A0440021C4F8001E6269636913436361AA
:10369000A36943F00603A361104A136843F00403CF
:1036A00013602846FFF788FCA36B43F48033A363C1
:1036B000A2690B4B1343A361A36843F00103A3600A
:1036C0002846FFF7B5FF38BD4FF0A042D36843F05E
:1036D0004003D360C2E700BF7C4B000800080050E5
:1036E000103800808B7813F07C0F59D130B503F07F
:1036F0007F02D80991F804C04B7903F007034CEA24
:10370000032C574C00EB400E02EB4203DB0003EBB3
:103710008E032344A3F806C091F806C002EB4203CF
:10372000DB0003EB8E03234483F808C00B794C794C
:1037300004F0070443EA042303339C109B08002889
:1037400042D15B0017334FF0A040406A984208D244
:10375000444800881844B0F5A07F2BD84FF0A04013
:103760004362500100F1A040D0F8004BCB7803F049
:1037700003039B0443F4004391F804C0497901F02A
:1037800007014CEA01210B432343C0F8003B3649B3
:10379000CB691032012000FA02F21A43CA6130BD2F
:1037A0004FF0E023D3F8F03D13F0010F00D000BE3E
:1037B000002070474FF0E023D3F8F03D13F0010FE5
:1037C00000D000BE0020EAE7264800881FFA84FCEB
:1037D00004444FF0A0456D6A2C44B4F5A07F32D864
:1037E00003449BB21F480380C3F5A07343EA0C4314
:1037F00002F13F00800000F1A0404360500100F161
:10380000A040D0F80059930543F40043CC7804F06D
:10381000030C43EA8C436446012C1ED04FF08054C5
:1038200023430C79497901F0070144EA01210B4354
:103830002B43C0F800390C49CB69012000FA02F291
:103840001A43CA61ABE74FF0E023D3F8F03D13F021
:10385000010F00D000BE0020A1E70024E0E700BF78
:10386000A0030020900300200008005030B583B072
:103870008C461C4601F07F014FEADC1C1A4B0CEB16
:103880004C0501EB410E4FEACE0E0EEB850E03EB1D
:103890000E0543F80E20AC80E1B10CEB4C0301EBBC
:1038A0004102D20002EB83030F4A1344B3F806E04F
:1038B000B4FBFEF293B20EFB124212F0FF0F00D1E6
:1038C0000CB901339BB200946246FFF787FB0120DD
:1038D00003B030BD054B23F81C4000940123624621
:1038E000FFF77CFBF3E700BFA00300209C03002050
:1038F00008B5064A1368090101F4FE611943116015
:1039000000231A468021FFF7B1FF08BD00080050D0
:1039100008B50122FFF7FCFB08BD01F07F03CA09CF
:1039200011D15B0103F1A043D3F8002B22F4001264
:10393000C3F8002BD3F8002BC2F38142023AD2B273
:10394000012A18D970475B0103F1A043D3F800297D
:1039500022F40012C3F80029D3F80029C2F38142EF
:10396000023AD2B2012AEDD8D3F8002942F08052AF
:10397000C3F800297047D3F8002B42F08052C3F8F7
:10398000002BDFE7F8B505464FF0A0435C6914F45F
:10399000805F37D114F4005F3AD114F4006F4AD13C
:1039A000002C53DB14F0040F08D04FF0A0435E68E6
:1039B00016F0040F55D14FF0A0435E6014F0100FC5
:1039C00019D04FF0A042936923F01003936131495D
:1039D0002846FFF795FC4FF0A0435C6914F0100FE8
:1039E000F5D12D4B1B78002B41D14FF0A0429369AC
:1039F00043F01003936114F4002F3FD114F4802F8F
:103A000042D1F8BD4FF480525A61FFF7D3FCC1E7B1
:103A10004FF0A0474FF400537B612846FFF7C0FAF0
:103A2000064601463846FFF765FA01223146284628
:103A3000FEF74FF8B1E74FF0A0434FF400625A6130
:103A4000012204212846FEF733F8A9E74FF0A043EE
:103A50004FF000425A61012205212846FEF728F85E
:103A6000A0E7012202212846FEF722F8A3E7284614
:103A7000FFF726FA084B00221A70B6E7054A0749F5
:103A80002846FFF7E5FCB9E7054A04492846FFF751
:103A90002DFDB6E7000B00509203002000080050F7
:103AA0000009005000487047A84B000800487047C4
:103AB000BC4B000810B560B9124B1B681A88124B3A
:103AC0005A800120431C5B0043F440730E4803807E
:103AD00010BD032814D80B4A52F820402046FCF7AA
:103AE00077FBC0B21F2800D91F20002305E05A1C15
:103AF000E15C054B23F81210D3B29842F7D8E1E706
:103B00000020E5E76400002000040020DFF834D046
:103B1000002103E00C4B5B58435004310B480C4B25
:103B200042189A42F6D30B4A02E0002342F8043BC3
:103B3000094B9A42F9D3FDF7BBFC00F011F8FCF7F2
:103B40000FFF704700000220CC4C0008000000204E
:103B5000D8000020D800002054040020FEE7000018
:103B600070B50D4D0D4C641BA4100026A64209D162
:103B70000B4D0C4C00F0C0FF641BA4100026A642A5
:103B800005D170BD55F8043B98470136EEE755F86E
:103B9000043B98470136F2E7C44C0008C44C0008C7
:103BA000C44C0008C84C00080A44914200F1FF339D
:103BB00000D1704710B511F8014B03F8014F914245
:103BC000F9D110BD02440346934200D1704703F877
:103BD000011BF9E70FB40A4B13B51C6824B1A369A4
:103BE00013B9204600F066F805AB049AA16801936A
:103BF000204600F083F902B0BDE8104004B07047E1
:103C000074000020002310B50446C0E90033C0E969
:103C10000433836081814366C2818361194608222F
:103C20005C30FFF7CFFF054B6362054BA362054B8A
:103C3000E362054B2462236310BD00BFA544000866
:103C4000C7440008FF44000823450008014900F06C
:103C5000AFB800BFFD47000870B568224D1E554340
:103C60000E4605F1740100F0C5F8044640B100218C
:103C7000C0E900160C30A06005F16802FFF7A2FF52
:103C8000204670BD014800F0B3B800BF41040020D9
:103C9000014800F0AEB800BF41040020014800F028
:103CA000A7B800BF42040020014800F0A2B800BF3E
:103CB0004204002010B50446FFF7F0FFA3691BB1D2
:103CC000BDE81040FFF7F0BFC4E912332365134B82
:103CD000134A1B68A262A34204BF0123A3612046CA
:103CE00000F020F86060204600F01CF8A06020463C
:103CF00000F018F80022E06004216068FFF782FFFE
:103D0000A06801220921FFF77DFFE068022212214D
:103D1000FFF778FF0123A361D2E700BF244C00081E
:103D20004D3C0008F8B50746FFF7ACFF1E4B1E6878
:103D3000B36913B93046FFF7BDFF4836D6E9013401
:103D4000013B03D533680BB33668F7E7B4F90C5081
:103D5000D5B9164BE36004F15800656600F047F8EA
:103D6000FFF796FFC4E90155C4E904552560A56134
:103D70000822294604F15C00FFF724FFC4E90D5531
:103D8000C4E912552046F8BD6834D9E70421384605
:103D9000FFF762FF044630600028D5D1FFF778FFB7
:103DA0000C233B60EEE700BF244C00080100FFFF3E
:103DB0002DE9F8430646884600F148040027D4E977
:103DC0000195B9F1010905D52468002CF7D13846D1
:103DD000BDE8F883AB89012B07D9B5F90E30013363
:103DE00003D029463046C04707436835E9E77047A6
:103DF00070477047F8B5CD1C25F0030508350C2D2C
:103E000038BF0C25002D064601DBA94203D90C233F
:103E100033600020F8BD00F0A5FD21490A68144672
:103E20009CB9204F3B6823B92146304600F02AFB5D
:103E300038602946304600F025FB431C23D10C2373
:103E40003360304600F094FDE3E723685B1B17D432
:103E50000B2B03D923601C44256004E06368A24255
:103E60000CBF0B605360304600F082FD04F10B0084
:103E7000231D20F00700C21ACCD01B1AA350C9E79B
:103E800022466468CCE7C41C24F00304A042E3D0BB
:103E9000211A304600F0F6FA0130DDD1CFE700BF3D
:103EA00044040020480400209368013B002B10B418
:103EB000936008DA9469A34201DB0A2903D15DF813
:103EC000044B00F033BB1368581C1060197008468F
:103ED0005DF8044B7047F8B506460F461446D518F2
:103EE000AC4201D1002007E014F8011B3A463046ED
:103EF000FFF7DAFF431CF3D1F8BD00002DE9F04FC6
:103F00000D469DB014469846064618B183690BB914
:103F1000FFF7D0FE894B9D421BD175686B6ED907A8
:103F200005D4AB899A0502D4A86DFFF761FFAB8970
:103F30001B0701D52B69EBB92946304600F05AFB27
:103F4000C0B16B6EDC070ED54FF0FF301DB0BDE881
:103F5000F08F7B4B9D4201D1B568DFE7794B9D42E5
:103F600008BFF568DAE7AB899805EDD4A86DFFF7CF
:103F700040FFE9E70023099320238DF82930CDF88D
:103F80000C803023DFF8C0818DF82A304FF0010912
:103F900023469A4613F8012B0AB1252AF9D1BAEB28
:103FA000040B0BD05B46224629463046FFF793FFB1
:103FB000013000F0AA80099A5A4409929AF8003018
:103FC000002B00F0A28000234FF0FF32CDE9052343
:103FD0000AF1010A049307938DF853301A9354465B
:103FE000052214F8011B5848FCF7FAF8049AD8B9CE
:103FF000D10644BF20238DF85330130744BF2B2331
:104000008DF853309AF800302A2B15D0079A544671
:1040100000204FF00A0C214611F8013B303B092BE0
:104020004ED9B0B1079214E0A0EB080309FA03F3EC
:1040300013430493A246D2E7039B191D1B68039107
:10404000002BBBBF5B4242F0020207930793B8BF4D
:10405000049223782E2B0CD163782A2B35D1039B25
:104060001A1D1B680392002BB8BF4FF0FF330234B8
:104070000593DFF8E4A0217803225046FCF7B0F85E
:1040800040B14023A0EB0A0003FA00F0049B034375
:104090000134049314F8011B2C488DF828100622D3
:1040A000FCF79EF800283FD0294B1BBB039B07332E
:1040B00023F0070308330393099B3B44099367E705
:1040C0000CFB02320C460120A5E7002301340593C6
:1040D00019464FF00A0C204610F8012B303A092AF5
:1040E00003D9002BC5D00591C3E70CFB0121044681
:1040F0000123F0E703AB00932A46164B04A9304690
:10410000AFF300800746781CD6D16B6ED90705D473
:10411000AB899A0502D4A86DFFF76BFEAB895B06ED
:104120003FF512AF099811E703AB00932A46094BFC
:1041300004A9304600F080F8E4E700BF484C0008CE
:10414000684C0008284C0008884C0008924C000875
:1041500000000000D73E00088E4C00082DE9F04713
:10416000164699468A680B69DDF820809342B8BFED
:104170001346336091F8432007460C460AB10133D9
:1041800033602368990642BF336802333360256881
:1041900015F0060506D104F1190AE36832689B1A86
:1041A000AB4226DC94F84320131E226818BF01237B
:1041B00092062BD404F1430249463846C0470130E9
:1041C0001ED02368E568326803F00603042B08BF9D
:1041D000AD1AA36822690CBF25EAE5750025934254
:1041E000C4BF9B1AED1800261A34B5421AD100201C
:1041F00008E00123524649463846C047013003D102
:104200004FF0FF30BDE8F0870135C6E7E1185A1CD2
:10421000302081F84300224494F8451082F843107E
:104220000233C7E70123224649463846C0470130DA
:10423000E6D00136D9E700002DE9FF470F7E0C9D3F
:10424000782F914680460C469A4601F1430207D8E2
:10425000622F0AD8002F00F0D880582F00F0A380DA
:1042600004F1420584F842703AE0A7F16303152B8C
:10427000F6D801A151F823F0D1420008E542000828
:104280006142000861420008614200086142000882
:10429000E5420008614200086142000861420008EE
:1042A00061420008F143000815430008D3430008A9
:1042B000614200086142000813440008614200089E
:1042C000154300086142000861420008DB43000812
:1042D0002B681A1D1B682A6004F1420584F84230DD
:1042E0000123A3E020682968060601F104030AD52A
:1042F0000E682B60002E03DA2D23764284F84330BB
:104300005E480A2319E00E682B6010F0400F18BFBA
:1043100036B2EFE72B682068191D2960010601D528
:104320001E6802E04606FBD51E8854486F2F0CBF5E
:1043300008230A23002184F843106568A560002D36
:10434000A2BF216821F0040121600EB9002D4DD0DB
:104350001546B6FBF3F103FB1167C75D05F8017D58
:104360003746BB420E46F4D9082B0BD12368DE0733
:1043700008D5236961689942DEBF302305F8013C06
:1043800005F1FF35521B2261CDF800A04B4603AA70
:1043900021464046FFF7E2FE01304CD14FF0FF309E
:1043A00004B0BDE8F087354881F845702968236876
:1043B00051F8046B29601D0614D5DF0744BF43F094
:1043C000200323601EB9236823F0200323601023F9
:1043D000B0E7236843F0200323607823284884F85B
:1043E0004530E3E7590648BFB6B2E6E71546BBE7F6
:1043F0002B6826686169181D286035061B6801D581
:10440000196002E07006FBD5198000232361154670
:10441000BAE72B681A1D2A601D68626800212846C9
:10442000FBF7DEFE08B1401B606063682361002378
:1044300084F84330A8E723692A4649464046D047D6
:104440000130ABD023689B0713D4E068039B9842EC
:10445000B8BF1846A4E70123324649464046D04734
:1044600001309BD00135E36803995B1AAB42F2DC63
:10447000EBE7002504F11906F5E700BF994C0008A9
:10448000AA4C000838B5064D0023044608462B60A8
:1044900000F01CFB431C02D12B6803B1236038BD24
:1044A0004C04002010B50C46B1F90E1000F0B2FA21
:1044B0000028ABBF636DA3891B1823F48053ACBFE6
:1044C0006365A38110BD2DE9F0411F468B89DB0593
:1044D00005460C46164605D5B1F90E1002230022FA
:1044E00000F0C8F9A389B4F90E1023F48053A38116
:1044F00032463B462846BDE8F04100F069B810B5A9
:104500000C46B1F90E1000F0B5F9431CA38915BF94
:10451000606523F4805343F48053A38118BFA381C3
:1045200010BDB1F90E1000F0D3B80000F8B50E467A
:104530001446054618B183690BB9FFF7BBFB214B45
:104540009C422BD16C68A369A360A3891A072FD55D
:1045500023696BB323692068C01A6369F6B283428A
:10456000374604DC2146284600F048F930BBA368F2
:10457000013BA36023685A1C22601E7063690130EE
:10458000834204D0A389DB0706D50A2E04D1214635
:10459000284600F033F988B93846F8BD0A4B9C42EA
:1045A00001D1AC68CFE7094B9C4208BFEC68CAE771
:1045B0002146284600F01EF80028CBD04FF0FF37E8
:1045C000EAE700BF484C0008684C0008284C000887
:1045D00038B5074D04460846114600222A601A469F
:1045E00000F082FA431C02D12B6803B1236038BD6E
:1045F0004C040020324B70B51D6806460C4625B1B0
:10460000AB6913B92846FFF755FB2E4B9C420FD1DF
:104610006C68A389B4F90C2019072CD4DD0611D4D9
:104620000923336042F04003A3814FF0FF303EE0A6
:10463000254B9C4201D1AC68EBE7244B9C4208BF60
:10464000EC68E6E7580712D5616B41B104F1440309
:10465000994202D0304600F091F900236363A389A8
:1046600023F02403A3810023636023692360A389CB
:1046700043F00803A38123694BB9A38903F4207392
:10468000B3F5007F03D02146304600F02BF9A08916
:10469000B4F90C2010F001030AD00023A360636971
:1046A0005B42A361236943B910F08000BAD170BDA9
:1046B000810758BF6369A360F4E70020F7E700BFF4
:1046C00074000020484C0008684C0008284C000882
:1046D00038B5064D0023044608462B6000F0CEF99D
:1046E000431C02D12B6803B1236038BD4C04002069
:1046F0008A892DE9F041054610070C4658D44B68CD
:10470000002B05DC0B6C002B02DC0020BDE8F081E7
:10471000E66A002EF9D0002312F480522F682B6035
:1047200032D0606DA3895A0705D56368C01A636BE0
:104730000BB1236CC01A00230246E66A216A2846A0
:10474000B047431CA38906D129681D292CD82A4AC1
:10475000CA40D60728D500226260D90422692260A7
:1047600004D5421C01D12B6803B96065616B2F60D1
:104770000029CAD004F14403994202D0284600F02F
:10478000FDF800206063C1E7216A01232846B04795
:10479000411CC7D12B68002BC4D01D2B01D0162B78
:1047A00001D12F60B1E7A38943F04003A381ADE7B6
:1047B0000F69002FA9D093070E6808BF4B690F60DF
:1047C00018BF0023A6EB07088B60B8F1000F9CDD33
:1047D000216AA66A43463A462846B047002806DCC6
:1047E000A38943F04003A3814FF0FF308EE70744D5
:1047F000A8EB0008E9E700BF0100402038B50B69CD
:1048000005460C4613B90025284638BD18B1836902
:104810000BB9FFF74FFA144B9C421BD16C68B4F9EB
:104820000C30002BEFD0626ED00704D4990502D46F
:10483000A06DFFF7DDFA28462146FFF759FF636EAA
:10484000DA070546E0D4A3899B05DDD4A06DFFF708
:10485000D0FAD9E7054B9C4201D1AC68DFE7044BA5
:104860009C4208BFEC68DAE7484C0008684C000836
:10487000284C000838B5074D04460846114600226A
:104880002A601A4600F012F9431C02D12B6803B1CA
:10489000236038BD4C04002070B50E46B1F90E10EF
:1048A000002996B014461D4608DAB6F90C300022ED
:1048B0002A601A0610D44FF480630EE06A4600F0B6
:1048C000BBF80028F1DB019A02F47042A2F5005314
:1048D0005A425A412A60EEE740230020236016B076
:1048E00070BD00008B8973B59D0706460C4607D541
:1048F00004F14703236023610123636102B070BDAB
:1049000001AB6A46FFF7C8FF009905463046FFF73E
:1049100071FA48B9B4F90C309A05EFD423F00303C7
:1049200043F00203A381E3E70D4BB362A389206048
:1049300043F08003A381009B6361019B20615BB115
:10494000B4F90E10304600F089F828B1A38923F09D
:10495000030343F00103A381A0890543A581CDE7AB
:104960004D3C00080148FFF743BA00BF4004002057
:104970000148FFF73EBA00BF4004002037B50029C8
:1049800044D051F8043C0190002BA1F10404B8BFBD
:10499000E418FFF7E7FF1E4A0198136833B9636014
:1049A000146003B0BDE83040FFF7E2BFA34208D96E
:1049B000256861198B4201BF19685B68491921603C
:1049C000EDE71A465B680BB1A342FAD91168551896
:1049D000A5420BD1246821445418A3421160E0D1B0
:1049E0001C685B68536021441160DAE702D90C232C
:1049F0000360D6E7256861198B4204BF19685B68BC
:104A0000636004BF491921605460CAE703B030BD38
:104A10004404002038B5074D0446084611460022DC
:104A20002A601A4600F04AF8431C02D12B6803B1F1
:104A3000236038BD4C04002038B5074D00230446E0
:104A4000084611462B6000F021F8431C02D12B6868
:104A500003B1236038BD00BF4C04002038B5064DBB
:104A60000023044608462B6000F018F8431C02D1CE
:104A70002B6803B1236038BD4C040020024B582240
:104A80001A604FF0FF3070474C040020024B582250
:104A90001A604FF0FF3070474C040020024B582240
:104AA0001A600020704700BF4C040020024B5822BF
:104AB0001A604FF0FF3070474C040020024B582220
:104AC0001A604FF0FF3070474C040020044A05493B
:104AD0001368002B08BF0B46184410601846704737
:104AE0005004002058040020024B58221A604FF056
:104AF000FF3070474C040020F8B500BFF8BC08BC7C
:104B00009E467047F8B500BFF8BC08BC9E4670478B
:104B1000646576696365206D6F756E746564000009
:104B200064657669636520756E6D6F756E74656416
:104B3000000000006465766963652077616B6575C8
:104B40007000000064657669636520726573756D39
:104B50006564000000000000000000000102030482
:104B600006070809F52800085129000885290008CA
:104B7000A12A0008A52A00080000000025640D0AEB
:104B80000000000054696E795553420054696E79F3
:104B900055534220446576696365000031323334F1
:104BA0003536000009040000120100020000004038
:104BB000FECA08400001010203010000090265006D
:104BC000020100A0320904000000010100000924D4
:104BD00001000109000101090401000201030000B4
:104BE0000724010001250006240201010006240219
:104BF0000202000924030103010201000924030247
:104C00000401010100090501024000000000052522
:104C10000101010905810240000000000525010194
:104C200003000000780000200000000000000000E9
:104C30000000000000000000000000000000000074
:104C40000000000000000000000000000000000064
:104C50000000000000000000000000000000000054
:104C60000000000000000000000000000000000044
:104C70000000000000000000000000000000000034
:104C80000000000000000000232D302B2000686C85
:104C90004C0065666745464700303132333435365F
:104CA0003738394142434445460030313233343598
:0C4CB000363738396162636465660000C5
:084CBC00F4B5FF7F01000000C8
:044CC400B50100082E
:044CC800910100084E
:104CCC004A4E51565A5D6266393D4245494E5155E0
:104CDC00585C6164615C5855514E4A45423E393EC0
:104CEC0042454A4E51565A5D6166615D5A55514E68
:104CFC004944403D383D40444A4E51565A5D6266E7
:104D0C0001000000100000000024F400010000006D
:104D1C004401002010000C0000001F00E0FF000008
:104D2C0000000000A44B0008844B00088C4B0008CA
:104D3C009C4B00087800002000000000484C000844
:104D4C00684C0008284C000800000000000000001F
:104D5C000000000000000000000000000000000047
:104D6C000000000000000000000000000000000037
:104D7C000000000000000000000000000000000027
:104D8C000000000000000000000000000000000017
:084D9C0000000000000000000F
:0400000508003B0DA7
:00000001FF
