:020000040800F2
:100000000000022015480008150B0008170B000817
:10001000190B00081B0B00081D0B00080000000056
:100020000000000000000000000000001F0B00089E
:10003000210B000800000000230B0008250B00081E
:1000400065480008654800086548000865480008DC
:1000500065480008654800086548000865480008CC
:1000600065480008654800086548000865480008BC
:1000700065480008654800086548000865480008AC
:10008000654800086548000865480008654800089C
:10009000654800086548000865480008654800088C
:1000A000654800086548000865480008654800087C
:1000B000654800086548000865480008654800086C
:1000C000654800086548000865480008654800085C
:1000D000654800086548000865480008654800084C
:1000E000654800086548000865480008654800083C
:1000F000654800086548000865480008654800082C
:10010000654800086548000865480008654800081B
:10011000654800086548000865480008654800080B
:1001200065480008654800086548000865480008FB
:1001300065480008654800086548000865480008EB
:100140006548000865480008654800082D0B000850
:1001500065480008654800086548000865480008CB
:1001600065480008654800086548000865480008BB
:100170006548000865480008654800080000000060
:0801800065480008654800080D
:100188000348044B834202D0034B03B1184770471E
:10019800900000209000002000000000054806495B
:1001A8000B1AD90F01EBA301491002D0034B03B17D
:1001B80018477047900000209000002000000000C1
:1001C80010B5064C237843B9FFF7DAFF044B13B197
:1001D8000448AFF300800123237010BD9000002075
:1001E800000000006848000808B5044B1BB104492A
:1001F8000448AFF30080BDE80840CFE700000000E6
:10020800940000206848000870B50D4E0D4D761B0F
:10021800B61006D00024013455F8043B9847A6428E
:10022800F9D1094E094D761B04F01AFBB61006D019
:100238000024013455F8043B9847A642F9D170BD13
:10024800A4480008A4480008A8480008A4480008D2
:10025800024B0146186800F0B1B800BF000000204A
:10026800024B0146186800F053B800BF0000002098
:10027800F0B4860746D0541E002A3CD0CAB20346C2
:1002880002E014F1FF3436D303F8012B9D07F8D1AF
:10029800032C29D9CDB245EA05250F2C45EA054599
:1002A80033D9A4F11006360903F1200707EB061726
:1002B80003F1100242E9045542E902551032BA42EC
:1002C800F8D1721C14F00C0F03EB021204F00F06A5
:1002D80013D0331F23F003030433134442F8045BA1
:1002E8009342FBD106F003042CB1C9B21C4403F8B5
:1002F800011B9C42FBD1F0BC704734461346002CCE
:10030800F3D1F8E714460346C2E71A462646E0E763
:1003180000293CD038B551F8043C0C1F002BB8BF5D
:10032800E418054600F0C0F8234B1A682AB1A24227
:100338000DD921686018824223D0626028461C606B
:10034800BDE8384000F0B2B8A34203D81A46536853
:10035800002BF9D111685018A04219D024D821686F
:100368006018834206D0636054602846BDE8384070
:1003780000F09CB8D3E90003014463602160546035
:10038800F3E7D2E90002014462602160D6E77047D2
:1003980020680144501883421160E6D1D3E9000374
:1003A800014453601160E0E70C232B602846BDE848
:1003B800384000F07BB800BFAC000020F8B5CD1C79
:1003C80025F0030508350C2D38BF0C25002D0646F1
:1003D80033DBA94231D82A4F00F066F83A6852B1A7
:1003E80013685B1B04D43FE023685B1B29D52246B6
:1003F8005468002CF8D1796800293BD0294630464A
:1004080000F040F8431C28D0C41C24F00304A04288
:1004180005D0211A304600F035F801301DD025608E
:10042800304600F043F804F10B0020F00700231DCC
:10043800C21A01D01B1AA350F8BD0C22326000204A
:10044800F8BD0B2B05D8A242636811D05360E7E7CB
:10045800144623601C442560E2E70C2330463360D1
:1004680000F024F80020F8BD0B2BF1D8536814468F
:100478003B60D5E7304600F005F87860BEE700BF7E
:10048800AC00002038B5074C002305460846236019
:1004980000F00EF8431C00D038BD2368002BFBD0B9
:1004A8002B6038BD54080020704700BF704700BF5C
:1004B800044A05491368002B08BF0B46184410600E
:1004C80018467047B40000205808002053B94AB9AC
:1004D800002908BF00281CBF4FF0FF314FF0FF3044
:1004E80000F06EB9ADF1080C6DE904CE00F006F825
:1004F800DDF804E0DDE9022304B070472DE9F04798
:10050800089D04468C46002B40F083808A4217469B
:1005180047D9B2FA82F242B1C2F1200024FA00F0BF
:100528009140974040EA010C94404FEA1748230C49
:10053800BCFBF8F61FFA87FE08FB16C143EA014325
:1005480006FB0EF1994209D9FB1806F1FF3080F03D
:100558001981994240F21681023E3B445B1AA4B2CB
:10056800B3FBF8F008FB103344EA034400FB0EFE2B
:10057800A64509D93C1900F1FF3380F00581A6454D
:1005880040F2028102383C4440EA0640A4EB0E04E3
:1005980000261DB1D4400023C5E900433146BDE81B
:1005A800F08702B9FFDEB2FA82F2002A50D1CB1BE3
:1005B8004FEA174E1FFA87F80126B3FBFEFC210C01
:1005C8000EFB1C3341EA034108FB0CF38B4207D9AD
:1005D80079180CF1FF3002D28B4200F2E980844690
:1005E800C91AA3B2B1FBFEF00EFB101143EA014495
:1005F80008FB00F8A04507D93C1900F1FF3302D2E7
:10060800A04500F2D9801846A4EB080440EA0C4043
:10061800BFE78B4209D9002D00F0B1800026C5E95B
:10062800000130463146BDE8F087B3FA83F6002E64
:100638004AD18B4202D3824200F2B880841A61EB1D
:10064800030101208C46002DA8D0C5E9004CA5E780
:10065800C2F1200320FA03F6974001FA02F04FEAAC
:10066800174ED9403043030CB1FBFEF61FFA87F84A
:100678000EFB161143EA014306FB08F1994204FAFE
:1006880002F409D9FB1806F1FF3C80F08D809942ED
:1006980040F28A80023E3B445B1A81B2B3FBFEF013
:1006A8000EFB103341EA034100FB08F38B4207D9E4
:1006B800791800F1FF3C73D28B4271D90238394462
:1006C800CB1A40EA064678E7C6F1200C03FA06F48E
:1006D80022FA0CF31C4320FA0CF701FA06F34FEA4E
:1006E800144E21FA0CF11F433B0CB1FBFEF91FFA23
:1006F80084F80EFB191143EA014109FB08FA8A45FF
:1007080002FA06F200FA06F308D9611809F1FF3077
:1007180048D28A4546D9A9F102092144A1EB0A0128
:10072800BFB2B1FBFEF00EFB101147EA014700FB18
:1007380008F8B84507D9E71900F1FF312ED2B845B6
:100748002CD90238274440EA0940A7EB0807A0FB48
:1007580002894F45C64649461AD317D05DB1B3EB57
:100768000E0267EB010707FA0CFCF2404CEA0202A2
:10077800F740C5E9002700263146BDE8F0872E4638
:1007880028460BE70646E9E61846FDE64345E5D266
:10079800B8EB020E69EB04010138DFE70846D2E73F
:1007A80060468DE78146B9E7664675E730464AE711
:1007B800ACF1020C394413E702383C4424E700BF8B
:1007C800704700BF2DE9F04F8DB0002407940894BE
:1007D80009940A940B940194564B1A6B42F0100238
:1007E8001A631A6B02F010020192019A02941A6BB2
:1007F80042F004021A631A6B02F004020292029A8F
:1008080003941A6B42F080021A631A6B02F080029A
:100818000392039A04941A6B42F001021A631A6B4A
:1008280002F001020492049A05941A6B42F0020243
:100838001A631A6B02F002020592059A06941A6B63
:1008480042F008021A631B6B03F008030693069B29
:10085800394E22460821304602F04AFADFF8E09085
:1008680001221146484602F043FADFF8D8802246B2
:100878004FF21001404602F03BFA0827079701257E
:10088800089509940A9407A9304602F04BF9079590
:10089800089509940A9407A9484602F043F907976E
:1008A8000227089709940A944FF0050ACDF82CA05E
:1008B80007A9484602F036F90795DFF88C90CDF87D
:1008C8002090099407A91D4802F02CF904230793E6
:1008D80008940994DFF874B007A9584602F022F981
:1008E8004FF480630793089709940A94CDF82CA0D5
:1008F80007A9584602F016F94FF210030793089516
:1009080009940A9407A9404602F00CF9202307939A
:100918000894099407A9404602F004F90797CDF80E
:100928002090099407A9304602F0FCF80DB0BDE804
:10093800F08F00BF00380240001002400000024063
:1009480000080240000C024000001210000402409F
:1009580072B6FEE708B50A480A4B03600A4B4360C3
:1009680000238360C3604FF4804202614361836166
:10097800C361036202F09CFA00B908BDFFF7E8FF03
:10098800C000002000540040A086010008B50A48B5
:100998000A4B03604FF40072426000238360C36017
:1009A8000261074A42618361C361036202F05EFB30
:1009B80000B908BDFFF7CCFF6C010020003C0040E7
:1009C8000077010008B50D480D4B03604FF48273A2
:1009D800436000238360C360036143614FF4007286
:1009E8008261C3610362436283620A23C36202F0C5
:1009F8003BFE00B908BDFFF7ABFF00BF14010020A4
:100A08000030014000B599B0302200210DEB020002
:100A1800FFF72EFC00230793089309930A930B937F
:100A280003930493059306930193274A116C41F0AD
:100A380080511164126C02F080520192019A029363
:100A4800224B1A6842F480421A601B6803F4804300
:100A58000293029B01230C934FF480330D930223DE
:100A680012934FF480021392082214924FF4A87242
:100A780015921693072317930CA801F04DFCE8B9BB
:100A88000F23079302230893002309934FF4A053DD
:100A98000A934FF480530B93052107A801F098FEA1
:100AA80070B901230393C02304930223059303A879
:100AB80001F054FF30B919B05DF804FBFFF748FFA7
:100AC800FFF746FFFFF744FF003802400070004080
:100AD80008B502F0ADF9FFF795FFFFF773FEFFF7D2
:100AE80039FFFFF753FFFFF76DFF00F019F900F02A
:100AF80037F94FF48051044802F000F94FF47A7046
:100B080002F0C2F9F3E700BF000C0240FEE7FEE77F
:100B1800FEE7FEE7FEE770477047704708B502F04A
:100B2800A1F908BD08B5024800F052FF08BD00BF92
:100B38008C05002000B583B0002100910C4B5A6C45
:100B480042F480425A645A6C02F480420092009A3D
:100B580001911A6C42F080521A641B6C03F08053A6
:100B68000193019B072002F0D3F803B05DF804FB62
:100B78000038024030B589B00023039304930593ED
:100B8800069307930268154B9A4201D009B030BD0D
:100B980000250195124C236B43F002032363236B5A
:100BA80003F002030193019B4FF410730393122384
:100BB80004930123059306950423079303A9094881
:100BC80001F0B0FF0295236C43F400132364236CF7
:100BD80003F400130293029BD8E700BF00540040BF
:100BE800003802400004024070B588B00023039327
:100BF800049305930693079302681F4B9A4201D00A
:100C080008B070BD0024009403F5FE331A6C42F45A
:100C180000421A641A6C02F400420092009A01948D
:100C28001A6B42F001021A631A6B02F00102019278
:100C3800019A02941A6B42F004021A631B6B03F0C8
:100C480004030293029B102303930226049605943F
:100C580006940625079503A9084801F063FF4FF499
:100C6800A4530393049605940694079503A904488E
:100C780001F058FFC4E700BF003C004000000240FC
:100C88000008024000B589B000230393049305933C
:100C9800069307930268154B9A4202D009B05DF893
:100CA80004FB0022019203F58433596C41F480510E
:100CB8005964596C01F48051019101990292196BA0
:100CC80041F0010119631B6B03F001030293029BBE
:100CD800E0230393022304930592069205230793C6
:100CE80003A9034801F01EFFD8E700BF0030014008
:100CF8000000024004290CD0052902D0022904D0A2
:100D08007047064B03221A707047044B02221A7070
:100D18007047024B01221A70F2E700BFB8000020AA
:100D280008B501220B490C4802F05DFE48B90B4991
:100D3800094802F077FE38B9074802F0B6FE30B924
:100D480008BDFFF705FEF2E7FFF702FEF4E7FFF73D
:100D5800FFFDF5E7FD0C0008B4010020700000203D
:100D680008B5024802F0ABFE08BD00BFB401002080
:100D780070B588B0002303930493059306930793F3
:100D88000368B3F1A04F01D008B070BD00240194EE
:100D98001B4D2B6B43F001032B632B6B03F00103FB
:100DA8000193019B4FF40073039304940594154E2B
:100DB80003A9304601F0B6FE4FF4E0530393022333
:100DC8000493059406940A23079303A9304601F077
:100DD800A9FE6B6B43F080036B6302946B6C43F466
:100DE80080436B646B6C03F480430293029B22463E
:100DF8002146432001F09EFF432001F0CFFFC3E7C7
:100E0800003802400000024008B5D0F8C00202F0E5
:100E180099FF08BD08B5D0F8C00202F0A4FF08BDCC
:100E280008B5D0F8C00202F0A8FF08BD704708B5A1
:100E3800D0F8C00202F08FFF08BD08B5D0F8C00294
:100E480002F08DFF08BD000090F8CC33012B01D0D3
:100E58000020704710B504460F48C0F8C042C4F8D7
:100E6800D0034FF0A0430360082383600123C360CD
:100E78000023036102228261C36100F052F940B984
:100E8800054800F082FE0146204602F058FF002087
:100E980010BDFFF75DFDF3E78C05002008B5D0F81D
:100EA800D00300F077FE012804D0022804D000B156
:100EB800012008BD0120FCE70220FAE708B5D0F8B8
:100EC800D00300F05CFE08BD08B5D0F8D00300F0F0
:100ED8004FFE08BD08B590F8CC33012B04D0C820CC
:100EE80001F0D2FF002008BD084600F06FF8F6E7D1
:100EF800D0F8D03301EB810003EBC00090F83B0041
:100F080038B101EB810103EBC10181F850200020C9
:100F1800704701EB810103EBC10181F85120F6E72D
:100F280008B501F0B1FF08BD022805D8DFE800F0D8
:100F380005040200012070470220704708B5D0F868
:100F4800D00300F0E8FDFFF7EFFF08BD08B5D0F8C3
:100F5800D00300F0F6FDFFF7E7FF08BD08B5D0F8AD
:100F6800D00300F000FEFFF7DFFF08BD10B584B026
:100F7800D0F8D003BDF8204002949DF81C4001949D
:100F88009DF81840009400F06FF8FFF7CDFF04B00B
:100F980010BD08B5D0F8D00300F0B1F8FFF7C4FFD2
:100FA80008BD10B584B0D0F8D0039DF82440039450
:100FB800BDF820400294079C01949DF818400094C5
:100FC80000F0F9F8FFF7B0FF04B010BD08B528B974
:100FD80001220121024801F08BFE08BD0022F8E73A
:100FE80000080240F8B50668346A04F00F07C4F335
:100FF8004343C4F30A14022B00D0F8BD0546002C65
:10100800FBD007EB870300EBC303596C0029F4D02E
:101018002246304600F086FE07EB870305EBC30344
:101028005A6C22445A64DA6C2244DA6406EB471696
:10103800D6F810250B4B1340002BDED0D6F8003520
:1010480023F0804343F00043C6F8003507EB8703DD
:1010580005EBC30393F8502082F0010283F8502077
:10106800CBE700BF0000F81FF0B585B004469DF837
:1010780028509DF82C60BDF8307090F8B80201280F
:101088003BD0012084F8B80201EB810004EBC000DA
:101098004FF0000C80F83DC080F83830A0F8407060
:1010A80080F8391080F83F6002F07F0C80F83AC071
:1010B80012F0800F18D101EB810004EBC0004FF053
:1010C800000C80F83BC001EB810004EBC00080F805
:1010D8003C50029701960095206800F02DFF0023F0
:1010E80084F8B83205B0F0BD01EB810004EBC00014
:1010F8004FF0010C80F83BC0E5E70220F2E790F8DA
:10110800B832012B0BD010B50446012380F8B83251
:10111800006800F09AFF002084F8B80210BD022091
:101128007047002845D0F0B58BB00646046890F8A3
:10113800B932002B38D0032386F8B932E36B13F4A5
:10114800807F01D100233361306800F092FD34467E
:1011580054F810CB6D460FCC0FC50FCC0FC594E8D3
:10116800030085E80300371D97E80E00604600F08D
:1011780035FD0121306800F082FD344654F810CB6B
:101188006D460FCC0FC50FCC0FC594E8030085E85A
:10119800030097E80E00604600F040FE012386F841
:1011A800B93200200BB0F0BD80F8B832FFF7E0FD8F
:1011B800C1E701207047F8B59DF81850BDF82060C8
:1011C80001EB810400EBC40484F83B2084F83F3031
:1011D8008DB901EB810400EBC404032784F8427045
:1011E8009DF8247084F83D70032B00F29480DFE8AA
:1011F80003F00A8B2F5D01EB810400EBC404022786
:1012080084F84270F0E7012D40F08580002A40F014
:10121800828036B901EB810300EBC303012283F816
:10122800512001EB810300EBC30393F851303BB924
:1012380001EB810300EBC303002283F842206AE03C
:1012480001EB810300EBC303022283F8422062E032
:10125800AAB901EB810300EBC30393F8513033B90A
:1012680001EB810300EBC30383F8422053E001EB59
:10127800810300EBC303022283F842204BE001EB19
:10128800810300EBC30393F850303BB901EB8103B2
:1012980000EBC303002283F842203CE001EB81030A
:1012A80000EBC303022283F8422034E0AAB901EB21
:1012B800810300EBC30393F8513033B901EB810389
:1012C80000EBC30383F8422025E001EB810300EB28
:1012D800C303022283F842201DE001EB810300EBE7
:1012E800C30393F850303BB901EB810300EBC30310
:1012F800002283F842200EE001EB810300EBC303D8
:10130800022283F8422006E001EB810300EBC303CD
:10131800002283F8422001EB810300EBC303079A04
:101328005A649E64002283F85C20DA6483F83910DA
:1013380083F85D2001EB8101C9003831027C01444A
:10134800006800F0FDFEF8BD30B583B004460568BE
:10135800D5F840340193D5F840340093009B23F02E
:101368002E030093019B13F0020F07D0019B13F08B
:10137800010F25D1009B43F002030093019B13F05A
:10138800080F10D0009B43F008030093019B13F053
:10139800040F2DD0A369022B15D0E368012B22D0AE
:1013A8002046FFF744FD019B13F0200F03D0009B5C
:1013B80043F020030093009BC5F8403403B030BDD0
:1013C800FFF728FDD6E7019B03F4C023B3F5802F70
:1013D80004D00121206800F0BEFCE1E7022120686A
:1013E80000F0B9FCDCE74EF66022C5F80424D7E724
:1013F8002046FFF722FDD6E7F8B506460C460768F3
:1014080007EB411707F5A065AB6813F0040F40D050
:101418000423AB60EB6843F00203EB60AB6813F4A2
:10142800007F40F08280AB6813F0010F00F0B080BD
:1014380033694BB104EB840306EBC3039A6C296947
:10144800C1F31201521ADA6404EB840306EBC303F6
:10145800012283F85D2000219965AA6093F83F3046
:10146800002B6ED0022B6CD0032B7FD0012B72D1B6
:1014780004EB840306EBC303012283F85C2093F892
:101488005010514083F8501021463046FFF7CEFCEB
:1014980061E0AB6813F4807F06D1AB6813F0200FCE
:1014A80014D02023AB60B9E74FF48073AB6001EB35
:1014B800810300EBC303072283F85D20EB6843F048
:1014C8000203EB60006800F0C0FDA7E7AB6813F00B
:1014D800080F17D1AB6813F4806F9FD0EB6843F007
:1014E8000203EB60006800F0B0FD1023AB6004EB72
:1014F800840306EBC303082283F85D204FF480635E
:10150800AB608BE7EB6843F00203EB6001EB810310
:1015180000EBC303052283F85D201023AB6008238A
:10152800AB60006800F091FD78E7EB6843F00203D8
:10153800EB602146306800F088FD4FF40073AB6023
:1015480013E0EB6843F00203EB602146306800F0DB
:101558007CFD1023AB6004EB840306EBC30393F814
:10156800502082F0010283F85020F8BDD7F80035EA
:1015780043F00053C7F8003504EB840306EBC303BC
:10158800012283F85C2021463046FFF74FFCE2E752
:10159800AB6813F0020F6CD0EB6823F00203EB602A
:1015A80004EB840306EBC30393F85D30012B14D0DE
:1015B800052B26D0062B2CD0082B2AD0032B48D05D
:1015C800072B11D104EB840306EBC3039A6D013298
:1015D8009A65042283F85C2006E004EB840306EB9A
:1015E800C303012283F85C200223AB6004EB84036D
:1015F80006EBC30393F85C2021463046FFF716FC40
:10160800B3E704EB840306EBC303052283F85C20ED
:10161800EAE704EB840206EBC202936D013393659B
:10162800032B0ED9134600229A65042283F85C2006
:10163800D7F8003523F0804343F00043C7F800355E
:10164800D2E704EB840306EBC303022283F85C2091
:10165800EEE704EB840306EBC303022283F85C2065
:10166800D7F8003523F0804343F00043C7F800352E
:10167800BAE7AB6813F0800F1AD1AB6813F0100FFC
:101688003FF473AF04EB840306EBC30393F83F30D6
:10169800032B26D00BB1022B07D104EB840306EBF6
:1016A800C30300229A65336953B31023AB605CE728
:1016B800EB6843F00203EB6004EB840306EBC3031F
:1016C8009A6D01329A6504EB840306EBC303062284
:1016D80083F85D202146306800F0B7FC8023AB60BA
:1016E80043E704EB840306EBC30300229A65EB6827
:1016F80043F00203EB602146306800F0A6FCD4E713
:1017080004EB840306EBC303032283F85D20EB6834
:1017180043F00203EB602146306800F096FCC4E712
:10172800F8B5036803EB411303F5A065AA6812F046
:10173800040F06D00423AB60EB6843F00203EB60B0
:10174800F8BD06460C46AA6812F0200F1ED02023CA
:10175800AB6001EB810300EBC30393F83D30012B31
:10176800EED101EB810300EBC303002283F83D2097
:1017780001EB810300EBC303022283F85C20EB68D2
:101788001343EB60006800F060FCD9E7AA6812F028
:10179800400F34D1AA6812F4007F4AD1AA6812F027
:1017A800010F51D1AA6812F0080F63D1AA6812F08C
:1017B800100F70D001EB810300EBC30300229A6580
:1017C800032283F85D2093F83D306BB901EB810368
:1017D80000EBC30393F83C3033B901EB810300EB12
:1017E800C303012283F83D20EB6843F00203EB605A
:1017F8002146306800F029FC1023AB60A0E701EB1C
:10180800810300EBC303042283F85D20012283F8DF
:101818003D2001EB810300EBC30300229A65EB68CE
:1018280043F00203EB60006800F00FFC4023AB605C
:1018380086E7EB6843F00203EB60006800F005FC04
:101848004FF40073AB607BE78F0001EB810300EB83
:10185800C30300229A65EB6843F00203EB6000685B
:1018680000F0F3FB0123AB603C4406EBC40686F8AA
:101878005D3065E70823AB60EB6843F00203EB607B
:10188800006800F0E2FB04EB840406EBC4060523C1
:1018980086F85D3054E7AA6812F0800F35D1AA683F
:1018A80012F4806F42D1AA6812F0020F3FF448AFD9
:1018B800EA6822F00202EA6001EB810200EBC20250
:1018C80092F85D20012A45D0032A59D0042A6BD00A
:1018D800052A70D0062A01D0082A58D1282101FBF0
:1018E80004618A6D01328A65032A6AD90A46002191
:1018F8009165042182F85C10D3F8002522F080421B
:1019080042F00042C3F8002541E0EB6843F00203CF
:10191800EB60006800F099FB04EB840406EBC40656
:10192800062386F85D308023AB6009E7EB6843F057
:101938000203EB60006800F088FB1023AB604FF4F3
:101948008063AB6004EB840406EBC406082386F8C6
:101958005D30F5E601EB810300EBC30383F85C20FF
:1019680093F83F30023BDBB2934210D8282303FBA5
:10197800010393F8512082F0010283F8512006E018
:1019880001EB810300EBC303022283F85C200223EE
:10199800AB6004EB840306EBC30393F85C20214699
:1019A8003046FFF743FACBE6282303FB0103022264
:1019B80083F85C20EBE7282303FB010383F85C2012
:1019C800E5E7282202FB0462022182F85C1093E713
:1019D800F8B504460568284600F0B9F9012800D092
:1019E800F8BD206800F0AFF90028F9D0206800F0B1
:1019F800AAF910F4001F03D023684FF400125A61AB
:101A0800206800F0A0F910F4801F03D023684FF479
:101A180080125A61206800F096F910F0806F03D0A8
:101A280023684FF080625A61206800F08CF910F04A
:101A3800020F02D0236802225A61206800F083F95D
:101A480010F0005F08D023684FF000525A61D5F8B3
:101A5800403413F0010F25D0206800F074F910F01D
:101A6800807F27D1206800F06EF910F0080F25D18B
:101A7800206800F068F910F0007F26D1206800F097
:101A880062F910F0100FABD02268936923F01003AD
:101A980093612046FFF7A6FA2268936943F0100382
:101AA80093619DE72046FFF7BBF90121206800F00C
:101AB80052F9D1E72046FFF747FCD3E72046FFF766
:101AC800A3F9236808225A61D2E7206800F0B8FA1F
:101AD8000746002604E0F1B22046FFF721FE013652
:101AE800A368B34212D906F00F0327FA03F313F0E1
:101AF800010FF4D005EB4613D3F8003513F4004F6B
:101B0800E9D0F1B22046FFF777FCE8E723684FF009
:101B180000725A61B2E738B590F8B832012B0ED08E
:101B28000446012580F8B852006800F09CF8294660
:101B3800206800F04FF9002084F8B80238BD022070
:101B4800FCE790F8B832012B0BD010B504460123FE
:101B580080F8B832006800F09FFB002084F8B802D3
:101B680010BD0220704708B5006800F014F908BDE0
:101B780001EB810100EBC10191F85C00704701EBBA
:101B8800810100EBC101C86C704708B5006800F01E
:101B9800CEF908BD08B5006800F0BEF908BD000020
:101BA800002301330C4A934211D80269002AF8DA5B
:101BB800036943F00103036100230133064A93429A
:101BC80007D8026912F0010FF7D1002070470320EF
:101BD80070470320704700BF400D030084B010B564
:101BE800044603A880E80E00089B012B1FD1A36BB5
:101BF80023F48033A363E36823F4840323F04003CE
:101C0800E360E36823F44013E3600F9B012B09D0E2
:101C18002046FFF7C5FF069B012B1BD0BDE81040EF
:101C280004B07047E36843F48013E360F0E7E368C7
:101C380043F04003E3602046FFF7B2FF0C9B23B953
:101C4800A36B43F48033A363E5E7A36B23F48033EA
:101C5800A363E0E7A36843F00603A360A36843F027
:101C68002003A360DAE7836843F001038360002060
:101C78007047836823F0010383600020704708B52C
:101C8800C36823F0C043C360012909D069B9C36898
:101C980043F08043C360322001F0F6F8002008BD0D
:101CA800C36843F00053C360F5E70120F7E700007D
:101CB800890141F02001016100230133054A934263
:101CC80005D8026912F0200FF7D1002070470320D1
:101CD800704700BF400D0300102303610023013348
:101CE800054A934205D8026912F0100FF7D1002077
:101CF80070470320704700BF400D030070B49DF883
:101D08000C4064B903339D08AC4208D200EB02339F
:101D180003F5805351F8046B1E600134F4E700208A
:101D280070BC704710B4033294080023A34206D253
:101D380000F58052126841F8042B0133F6E7084693
:101D48005DF8044B704742698069104070474069EC
:101D580000F00100704710B400F58064D0F800343A
:101D680023F00303C0F80034D0F8003401F0030274
:101D78001343C0F80034012905D0022907D00020F8
:101D88005DF8044B70474BF680336360F7E741F228
:101D980070736360F3E730B583B00446002501959E
:101DA800D0F840340193019B23F02E030193019B4B
:101DB80043F48073C0F84034642001F065F8019B57
:101DC80023F48073C4F840340A2001F05DF82846F3
:101DD80003B030BD82B000230193D0F840340193A2
:101DE800019B23F02E030193019B13F4805F01D123
:101DF80001290CD0019B13F4805F05D021B9019B08
:101E080023F48053C0F84034002002B07047019B8F
:101E180043F48053C0F84034ECE7000084B038B590
:101E2800044605A880E80E0025460023C4F8003EB5
:101E3800A36B43F40013A363A36B23F40023A363EE
:101E4800A36B23F48023A363E36B13F4807F10D088
:101E5800079B012B06D0D4F8003423F00403C4F800
:101E680000340CE0D4F8003443F00403C4F8003420
:101E780005E0D4F8003423F00403C4F8003410213A
:101E88002046FFF715FF2046FFF726FF0022069B96
:101E980093420AD905EB42134FF0FF31C3F80815F6
:101EA8000021C3F80C150132F1E701212046FFF7A4
:101EB80091FFC82000F0E8FF0023A3614FF0FF3333
:101EC8006361E36B13F4807F17D04FF40073636290
:101ED80003F18073A3620D4BC4F80031089B1BB952
:101EE800A36943F01003A361A269094B1343A361DB
:101EF8000020BDE8384004B070478023636203F5D2
:101F0800C003A362034BC4F80031E7E70003E00015
:101F1800080020A3E000400082B000230193D0F81D
:101F2800403401930198C0F3414002B0704700F576
:101F38008060806880B27047F0B506469DF818400A
:101F480000EB411505F5A0604FF0FF378760032CC3
:101F580065D8DFE804F00256021840F29D47C760D2
:101F680012F0800F09D1F76B17F4807F59D0C7683A
:101F780047F06007C76000200CE0C76847F4807727
:101F8800C760002006E040F29D67C76012F0800F2E
:101F980031D1002006F5806ED6F8187401F00F01D3
:101FA8004FF0010C0CFA01F13943C6F81814B16965
:101FB80041F00071B16112F0800F34D100269DF814
:101FC8001410022932D000219B0503F0FE53D202DF
:101FD80002F4F0421343A20402F440221343BDF872
:101FE8001C20C2F30A02134333430B43C5F80035E0
:101FF800032C1ED0F0BDC76847F48077C760002067
:10200800C8E740F22527C76012F0800F01D10020F1
:10201800C0E7C76847F4C077C7600020BAE7012067
:10202800B8E70020B6E74FF40046C8E74FF40031A0
:10203800CAE7D5F8003543F00053C5F80035D9E7AD
:1020480000F58060406980B2704710B400EB411120
:1020580001F5A064D1F80035C3F3814213F4402F91
:1020680026D0022A24D0D1F8003543F08043C1F8A5
:102078000035D0F8103413F47F0347D1D1F8002588
:1020880022F00042C1F80025D1F8002542F00042B4
:10209800C1F80025D1F8002522F40042C1F8002536
:1020A8000133B3F57A7F2DD82268002AF8DB29E0BE
:1020B800D1F8003543F08043C1F80035C36A13F402
:1020C8007F0319D1D1F8002522F00042C1F800257C
:1020D800D1F8002542F00042C1F80025D1F80025CA
:1020E80022F40042C1F800250133B3F57A7F09D8FC
:1020F8002268002AF8DB05E0D1F8003543F00043F8
:10210800C1F8003500205DF8044B7047D1F8003560
:1021180043F00043C1F80035F4E7000000EB41113B
:10212800064AC1F81025D1F8003523F0804343F062
:102138000043C1F800350020704700BF0000088048
:1021480070B582B04C78C36B13F4807F07D00B79DD
:102158002BB912B94B79012B11D0012A13D00B6975
:10216800E3B10D892B44013BB3FBF5F39BB2B3F507
:10217800807F14D92D020D614FF480730FE0214642
:10218800FFF7CCFF74E000EB4413D3F80C5525F0AF
:102198006005C3F80C5500234B71E0E70123CD78A7
:1021A8001DB10D8905FB03F50D610D69C5F3120518
:1021B800374E06EAC3431D438B7A5B0703F0C043DF
:1021C80000EB44141D43C4F8105512B1CB68C4F891
:1021D800143500F58066B36813F0010FD4F80035A4
:1021E80023F00053C4F80035D4F800350CBF4FF085
:1021F800005500252B43C4F80035D4F80055254B6D
:102208001D601D6825F080451D60CB78C3B1214D48
:102218002B6843F400432B601E4B1D6845F00045B6
:102228001D601B68C4F8003512BBCB7803BB0B6973
:10223800F3B1CA79032A14D8DFE802F0081D081D93
:10224800144D2B6823F400432B60E5E70333C26A7F
:1022580092B2C3F38F039A4203D2836943F02003F7
:102268008361002300930B8A4A78C968FFF746FD0B
:10227800002002B070BD0333326992B2C3F38F03FA
:102288009A42EED2836943F080638361E9E700BF35
:102298000000F81FBC00002070B505460446FFF793
:1022A800E8FC10212846FFF703FD2846FFF714FD38
:1022B80000220AE004EB4211D1F8003523F0802314
:1022C80043F08043C1F8003501320F2AF2D90020CB
:1022D800034600E001300F2813D804EB401606F53A
:1022E800A061D6F8002522F4004242F04042C6F828
:1022F80000250133B3F57A7FECD80A68002AF8DBA9
:10230800E8E74FF0FF33C5F814346B612846FFF750
:10231800AAFC002070BD0000002800F0D98170B52B
:1023280082B00446036813F0010F3BD0A64B9B68AC
:1023380003F00C03042B2CD0A34B9B6803F00C0375
:10234800082B21D06368B3F5803F4FD0B3F5A02F99
:1023580052D09D4B1A6822F480321A601A6822F40F
:1023680080221A606368002B50D000F087FD054674
:10237800954B1B6813F4003F14D100F07FFD401B00
:102388006428F5D90320AAE18F4B5B6813F4800F0A
:10239800D8D08D4B1B6813F4003F03D06368002B23
:1023A80000F09881236813F0020F54D0864B9B6885
:1023B80013F00C0F3ED0844B9B6803F00C03082BE2
:1023C80033D0E368002B67D0804B01221A6000F0FD
:1023D80055FD05467C4B1B6813F0020F53D100F0E6
:1023E8004DFD401B0228F5D9032078E1764A136891
:1023F80043F480331360B5E7734B1A6842F48022C4
:102408001A601A6842F480321A60ABE700F036FDB1
:1024180005466D4B1B6813F4003FC3D000F02EFD3A
:10242800401B6428F5D9032059E1674B5B6813F416
:10243800800FC6D1644B1B6813F0020F03D0E3680A
:10244800012B40F04981604A136823F0F8032169A1
:1024580043EAC1031360236813F0080F40D063698F
:1024680063B35B4B01221A6000F008FD0546564B2A
:102478005B6F13F0020F33D100F000FD401B022800
:10248800F5D903202BE1504A136823F0F80321699A
:1024980043EAC1031360DEE74C4B00221A6000F0E8
:1024A800EDFC0546484B1B6813F0020FD3D000F033
:1024B800E5FC401B0228F5D9032010E1444B00221B
:1024C8001A6000F0DBFC05463F4B5B6F13F0020F10
:1024D80006D000F0D3FC401B0228F5D90320FEE00B
:1024E800236813F0040F78D0374B1B6C13F0805F10
:1024F8000DD100230193344B1A6C42F080521A64B8
:102508001B6C03F080530193019B012500E000251B
:10251800304B1B6813F4807F21D0A368012B32D085
:10252800052B36D0284B1A6F22F001021A671A6F52
:1025380022F004021A67A368002B34D000F09EFC36
:102548000646214B1B6F13F0020F45D100F096FC95
:10255800801B41F288339842F3D90320BFE01D4A1B
:10256800136843F48073136000F088FC0646194B27
:102578001B6813F4807FD0D100F080FC801B0228F8
:10258800F5D90320ABE0104A136F43F0010313673A
:10259800D1E70D4B1A6F42F004021A671A6F42F026
:1025A80001021A67C7E700F069FC0646064B1B6F75
:1025B80013F0020F10D000F061FC801B41F2883349
:1025C8009842F3D903208AE00038024000004742CD
:1025D800800E474200700040E5B9A369002B7DD00A
:1025E800464A926802F00C02082A51D0022B17D0F2
:1025F800434B00221A6000F041FC04463F4B1B6825
:1026080013F0007F42D000F039FC001B0228F5D9F6
:10261800032064E0394A136C23F080531364DCE729
:10262800374B00221A6000F029FC0546334B1B6823
:1026380013F0007F06D000F021FC401B0228F5D9DA
:1026480003204CE0E369226A1343626A43EA821377
:10265800A26A5208013A43EA0243E26A43EA026381
:10266800264A5360264B01221A6000F007FC0446F4
:10267800224B1B6813F0007F06D100F0FFFB001B04
:102688000228F5D903202AE0002028E0002026E0CF
:10269800012B26D0194B5B6803F48001E269914253
:1026A80021D103F03F02216A8A421ED1616A47F6AE
:1026B800C0721A408A421AD103F44032A16A8A428F
:1026C80017D103F07063E26A934214D1002006E048
:1026D80001207047012002E0012000E0002002B044
:1026E80070BD0120FBE70120F9E70120F7E7012091
:1026F800F5E70120F3E70120F1E700BF00380240C9
:1027080060004742F8B52F4B9B6803F00C03042B7D
:1027180053D0082B53D12B4B5A6802F03F025B6809
:1027280013F4800F28D0274B5B68C3F38813580134
:102738000021C01A61F100018E0146EA9066870106
:102748003C1A66EB0105E90041EA5471E000C01843
:1027580041F100014B0243EAD05344022046194696
:102768000023FDF7B3FE174B5B68C3F30143013346
:102778005B00B0FBF3F023E0124B5B68C3F38813F4
:102788005C010025E41A65F10005AE0146EA94668D
:10279800A701381B66EB0501CC0044EA5074C5005C
:1027A800E81844F100018B0243EA90538402204662
:1027B80019460023FDF78AFED5E7034800E00348E1
:1027C800F8BD00BF0038024000127A000024F4006F
:1027D800002800F09B8070B50D4604464F4B1B68DF
:1027E80003F00F038B4208D2CBB24C4A1370136824
:1027F80003F00F038B4240F08B80236813F0020F25
:1028080017D013F0040F04D0454A936843F4E053FB
:102818009360236813F0080F04D0414A936843F487
:10282800604393603E4A936823F0F003A1680B432A
:102838009360236813F0010F32D06368012B21D015
:102848009A1E012A25D9364A126812F0020F61D061
:1028580033498A6822F0030213438B6000F00EFBB1
:1028680006462F4B9B6803F00C036268B3EB820F9C
:1028780016D000F003FB801B41F288339842F0D950
:10288800032042E0264A126812F4003FE0D10120FA
:102898003BE0234A126812F0007FD9D1012034E0CE
:1028A8001E4B1B6803F00F03AB4207D9EAB21B4B60
:1028B8001A701B6803F00F03AB422DD1236813F085
:1028C800040F06D0164A936823F4E053E1680B43DB
:1028D8009360236813F0080F07D0114A936823F414
:1028E8006043216943EAC1039360FFF70BFF0C4B78
:1028F8009B68C3F303130B4AD35CD8400A4B186098
:102908000A4B186800F06EFA002070BD012070476D
:102918000120FAE70120F8E70120F6E7003C024031
:1029280000380240804800086C0000206800002041
:10293800014B1868704700BF6C00002008B5FFF70E
:10294800F7FF044B9B68C3F38223034AD35CD84048
:1029580008BD00BF003802409048000830B583B079
:102968000446036813F0050F06D1236813F0020F1D
:102978002ED1002003B030BD494B00221A6000F070
:102988007DFA0546474B1B6813F0006F06D000F030
:1029980075FA431B022BF5D90320EBE76268A3689D
:1029A8001B0743EA82133F4AC2F884303C4B01229A
:1029B8001A6000F063FA05463A4B1B6813F0006F83
:1029C800D3D100F05BFA431B022BF5D90320D1E7E2
:1029D80000230193334B1A6C42F080521A641B6C2B
:1029E80003F080530193019B2F4A136843F48073CB
:1029F800136000F043FA05462B4B1B6813F4807FE5
:102A080006D100F03BFA431B022BF5D90320B1E7AE
:102A1800244B1B6F13F4407312D0E26802F4407227
:102A28009A420DD01F4B1A6F22F440721F490120A1
:102A38000860002008601A671B6F13F0010F13D19C
:102A4800E36803F44072B2F5407F1ED0154A9368DC
:102A580023F4F813936013490B6FE268C2F30B0277
:102A680013430B67002085E700F008FA05460D4B75
:102A78001B6F13F0020FE3D100F000FA401B41F284
:102A880088339842F3D9032074E706498A6822F408
:102A9800F81223F0704323F4407313438B60DAE792
:102AA800680047420038024000700040400E47422C
:102AB800012801D000207047164B9B6813F40003CF
:102AC80003D0012B23D114487047124B5B6813F4D1
:102AD800800F14D00F4B5B6803F03F030F48B0FB27
:102AE800F3F00C4AD2F88430C3F3881300FB03F0E8
:102AF800D2F88430C3F30273B0FBF3F07047054B90
:102B08005B6803F03F030648B0FBF3F0E9E70020F9
:102B1800704700BF003802400080BB0000127A00F6
:102B28000024F40000230F2B00F2D980F0B583B005
:102B380039E0072200E00022B2403A430234684EEE
:102B480046F82420674A1468EA4324EA05064F68D1
:102B580017F4803F01D045EA0406624C2660646899
:102B680002EA04064F6817F4003F01D045EA04065C
:102B78005C4C6660A46802EA04064F6817F4801F7C
:102B880001D045EA0406574CA660E46822404E6826
:102B980016F4001F01D045EA0402524CE2600133EA
:102BA8000F2B00F29A8001229A400C6804EA020571
:102BB80032EA0404F3D14C68661E012E03D9112CA5
:102BC80001D0122C12D186685F000324BC4026EA8B
:102BD8000406CC68BC4034438460466826EA020692
:102BE8004C68C4F300129A4032434260C7685E00E2
:102BF8000324B440E24327EA04078C68B4403C430A
:102C0800C4604C68022C01D0122C13D1DF0808379D
:102C180050F827E003F007044FEA840C0F2404FA65
:102C28000CF42EEA040E0C6904FA0CF444EA0E04BF
:102C380040F82740046814404A6802F00302B24092
:102C4800224302604A6812F0805FA8D000220192F5
:102C5800254A546C44F480445464526C02F4804213
:102C68000192019A9C08A61C1D4A52F8267003F08E
:102C7800030296000F22B24027EA02071B4A90423D
:102C88003FF459AF02F5806290421AD002F5806293
:102C9800904218D002F58062904216D002F5806208
:102CA800904214D002F58062904212D002F5806200
:102CB800904210D002F5806290423FF43AAF082269
:102CC8003AE7012238E7022236E7032234E70422F2
:102CD80032E7052230E706222EE703B0F0BD704741
:102CE80000380140003C014000380240000002402A
:102CF8000AB181617047090481617047436931EA0B
:102D0800030301D0816170470904816170470000A5
:102D1800074AD36823F4E0631B041B0C000200F489
:102D2800E060034343F0BF6343F40033D36070476C
:102D380000ED00E030B4174BDB68C3F30223C3F1A6
:102D48000704042C28BF04241D1D062D18D9033B95
:102D58004FF0FF3505FA04F421EA0401994005FA19
:102D680003F322EA0303194300280BDB0901C9B264
:102D780000F1604000F5614080F8001330BC7047F6
:102D88000023E5E700F00F000901C9B2024B19540E
:102D9800F4E700BF00ED00E014ED00E0002807DBD9
:102DA80000F01F02400901239340024A42F82030F4
:102DB800704700BF00E100E00138B0F1807F0AD21F
:102DC800064B5860064AF02182F8231000209860CC
:102DD80007221A6070470120704700BF10E000E02A
:102DE80000ED00E010B504460E4B18784FF47A73E6
:102DF800B3FBF0F30C4A1068B0FBF3F0FFF7DCFF0D
:102E080068B90F2C01D901200AE0002221464FF0B1
:102E1800FF30FFF78FFF054B1C60002000E001200A
:102E280010BD00BF640000206C0000206800002076
:102E380008B50B4B1A6842F400721A601A6842F41B
:102E480080621A601A6842F480721A600320FFF7E1
:102E58005FFF0020FFF7C6FFFDF76CFE002008BDEE
:102E6800003C0240034A1168034B1B780B44136073
:102E7800704700BF5008002064000020014B18680C
:102E8800704700BF5008002038B50446FFF7F6FF2A
:102E98000546B4F1FF3F02D0044B1B781C44FFF7F2
:102EA800EDFF401BA042FAD338BD00BF64000020EC
:102EB800002800F0CC80F8B5044690F83D30002B8F
:102EC80077D0242384F83D302268136823F0010367
:102ED80013602268136843F4004313602268136880
:102EE80023F400431360FFF729FD62685A4B9A42A6
:102EF80064D85A4B98428CBF00230123002B40F022
:102F0800A880574DA5FB0035AF0C2668716821F0E5
:102F18003F0141EA9541716021680B6A23F03F0344
:102F280065684D4A95424FD87A1C13430B62256851
:102F3800E96921F44F4121F0FF016368464A934251
:102F48004CD801385B00B0FBF3F0013040F6FC735D
:102F5800184278D0C0F30B030B43EB6121680B6870
:102F680023F0C003E269206A024313430B6021681F
:102F78008B6823F4034323F0FF032269E0680243CC
:102F880013438B602168CB6823F0FF036269A06953
:102F980002431343CB602268136843F001031360B4
:102FA80000202064202384F83D30206384F83E000C
:102FB800F8BD80F83C30FDF7DDFD82E7294B9842EB
:102FC8008CBF0023012399E74FF4967202FB07F2A6
:102FD800254DA5FB025292090132A6E7A268BAB9AB
:102FE800461E03EB4307B6FBF7F60136C6F30B069E
:102FF800B6FA86F6760946BBC2B9421E03EB43030E
:10300800B2FBF3F20132C2F30B0242F40043A3E72E
:10301800461E03EB830707EB8707B6FBF7F6013677
:10302800C6F30B06B6FA86F67609E4E7421E03EB0A
:10303800830303EB8303B2FBF3F20132C2F30B0207
:1030480042F4404388E7042386E7012384E701200C
:1030580070470120ACE700BFA08601007F841E00F6
:1030680083DE1B43FF083D00D34D6210002800F0AB
:10307800BF8070B5044690F84130002B51D0022231
:1030880084F841202168CB6923F47B6323F00F0384
:10309800CB6123681A626369934263D0E368002BAB
:1030A80046D11025A368202B00D86D000120FFF71A
:1030B800FFFC2369B3F5007F3CD0B0FBF5F000EBD3
:1030C800800043006069B3FBF0F30533494AA2FB73
:1030D8000323C3F3C002C2EBD3035B0811029A1E99
:1030E800FD2A41D822690A43216813430B622168EB
:1030F800CB6923F47B6323F00F036268A068024363
:10310800E0680243A0690243134343F40063CB61C0
:10311800236A012B2ED000206064012384F84130FB
:1031280070BD80F84030344B4363FDF75DFDA6E782
:103138002025B7E7E36853B1AD00B0FBF5F000EB2D
:10314800800043006069B3FBF0F30533BEE7ED0090
:10315800B0FBF5F000EB800043006069B3FBF0F3CF
:103168000533B3E70021BAE7636C43F010036364E7
:103178000120D5E7214B63632268214B9A421FD077
:103188004FF04022D36923F47B6323F00F03D3610C
:1031980022681B4B9A4215D04FF0402302221A6234
:1031A8002268174B9A4210D04FF04021CA6992B258
:1031B8006368B3F5007F0AD0C3B94FF4807608E09E
:1031C800104ADFE7A3F58063E8E70E49EEE74FF41E
:1031D8008076A068E568238B2B439BB203439BB2A0
:1031E8003343134343F40063CB6194E70026F0E7CD
:1031F80001207047CDCCCCCC873200089934000828
:103208000038004000340040704708B5426A03683F
:103218001288DA60436A02334362438D9BB2013BF2
:103228009BB24385438D9BB203B108BD02685368C6
:1032380023F0A0035360012380F84130FFF7E4FF37
:10324800F3E7704708B50368DA68C36A1A80C36A87
:103258000233C362438E9BB2013B9BB24386438ECB
:103268009BB203B108BD0268536823F06003536042
:10327800012380F84130FFF7E4FFF3E7704710B50A
:1032880084B0044602689368039390F84130DBB237
:10329800042B06D094F84130DBB2032B2CD004B0B9
:1032A80010BD039B13F0010F03D0536813F0400FB8
:1032B8001FD1039B13F0400FECD023685A6812F01B
:1032C800200FE7D05A6822F060025A600023019369
:1032D8002368DA6801929B680193019B012384F8B3
:1032E8004130636C43F0020363642046FFF7C6FF76
:1032F800D0E7FFF7A7FFDCE7039B13F0020F04D02A
:1033080023685B6813F0800F1DD1039B13F0080F2F
:10331800C5D023685A6812F0200FC0D05A6822F02E
:10332800A0025A600023029323689B680293029BC1
:10333800012384F84130636C43F00403636420463E
:10334800FFF79CFFABE72046FFF75FFFDDE770471D
:1033580008B5436A9A1C426202681B88D360438D91
:103368009BB2013B9BB24385438D9BB23BB902683C
:10337800536823F0A0035360438E9BB203B108BD8A
:10338800012380F84130FFF7E2FFF8E708B502684B
:10339800154B9A421CD04FF04023DA68C36A991C37
:1033A800C1621A80438E9BB2013B9BB24386438E17
:1033B8009BB263B902680C4B9A420CD04FF0402282
:1033C800536823F060035360438D9BB22BB108BD53
:1033D800A3F58063E1E7054AF2E7012380F841306D
:1033E800FFF7B5FFF3E700BF0038004000340040A6
:1033F80008B5436A9A1C42621A880168134B9942BD
:1034080018D04FF04023DA60438D9BB2013B9BB24A
:103418004385438D9BB263B902680C4B9A420CD02A
:103428004FF04022536823F0A0035360438E9BB2B1
:103438002BB108BDA3F58063E5E7054AF2E7012350
:1034480080F84130FFF783FFF3E700BF0038004002
:103458000034004008B50368DA68C36A991CC16281
:103468001A80438E9BB2013B9BB24386438E9BB22C
:103478003BB90268536823F060035360438D9BB2E5
:1034880003B108BD012380F84130FFF760FFF8E77A
:1034980010B586B0044603689A680592704A93424C
:1034A8006FD04FF04022916804915B680393536892
:1034B80002936368B3F5007F01D0002B70D1059BA0
:1034C80013F0020F03D0039B13F0800F5CD1049B11
:1034D80013F0010F03D0029B13F0400F58D1049B47
:1034E80013F0400F24D0029B13F0200F20D0226845
:1034F8005B4B9A4250D04FF04022536823F0600350
:1035080053602268536823F0A0035360002300939C
:103518002368DA6800929B680093009B012384F873
:103528004130636C43F0020363642046FFF7A6FE54
:10353800059B13F0080F22D0039B13F0200F1ED019
:103548002268536823F0A00353602268444B9A42D0
:1035580024D04FF04022536823F0600353600023C7
:10356800019323689B680193019B012384F84130F0
:10357800636C43F0040363642046FFF77FFE06B0E4
:1035880010BDA2F580628EE72046FFF7E1FE9EE7B8
:103598002046FFF7FBFEA2E7324AAEE7314ADAE7F8
:1035A800049B13F0020F03D0029B13F0800F4AD143
:1035B800059B13F0010F03D0039B13F0400F46D176
:1035C800059B13F0400F1CD0039B13F0200F18D05D
:1035D8002268536823F0600353602268204B9A42A4
:1035E80039D04FF04022536823F0A00353600123E1
:1035F80084F84130636C43F0020363642046FFF7AC
:103608003DFE049B13F0080FB9D0029B13F0200F66
:10361800B5D02268124B9A421FD04FF0402253680F
:1036280023F0A00353602268536823F060035360BB
:10363800012384F84130636C43F00403636420463B
:10364800FFF71CFE9BE72046FFF7D2FEB0E72046B7
:10365800FFF700FFB4E7034AC5E7024ADFE700BF08
:10366800003800400034004000283BD010B5044624
:103678000023836290F85130002B2ED0022384F867
:1036880051302268136823F0400313606368A2680E
:103698001343E26813432269134362691343A2691F
:1036A80002F400721343E2691343226A1343A16AC6
:1036B80022680B431360638B03F00403616A22687A
:1036C8000B4353602268D36923F40063D36100205D
:1036D8006065012384F8513010BD80F85030FDF743
:1036E800D1FACBE701207047054BD3F8882042F484
:1036F8007002C3F888204FF000629A60704700BFDC
:1037080000ED00E010B40446002306E003F1E002F7
:1037180004EB82020021516001330E2BF6D90023FD
:10372800B3F5007F05D2E218002182F81C1101339D
:10373800F6E70020207060700123A370C4F8C4036A
:1037480023764022A271607684F81C0384F81D3326
:1037580084F81F0384F81E035DF8044B704708B50E
:103768000378DBB20B2B00D008BDD0F87C33002BDC
:10377800FAD09B699847F7E770B584B00446457856
:10378800072D00F22C81DFE815F0080048006900D9
:103798009A00BF00E500FE001701082100F005FDB2
:1037A80018B1032821D0012509E194F82D33A3711C
:1037B8000125657002930026019694F81D33009345
:1037C80094F81C3380222179204600F0EDFDA3797E
:1037D8000293019694F81D33009394F81C333246F3
:1037E8006179204600F0E0FDE9E094F81E330133EA
:1037F800DBB284F81E33032B03D90D232370012574
:10380800DDE06179204600F0F7FD2179204600F0DF
:10381800F3FD002323700125D1E0122100F0C5FC3F
:1038280010B902236370CAE0032840F0C88094F8F6
:103838001E330133DBB284F81E33032B02D90D2368
:103848002370BCE06179204600F0D6FD217920463E
:1038580000F0D2FD002363702370B0E0012100F076
:10386800EEFC18B1032824D00125A8E00220FDF7BA
:1038780057FB012584F81C5303236370A379029333
:103888000026019694F81D3300932B468022217957
:10389800204600F089FDA3790293019694F81D3320
:1038A800009394F81C3332466179204600F07CFD81
:1038B80085E00D2323700023637001257FE0092133
:1038C80000F08CFC18B904236370012577E0032805
:1038D80001D0012573E094F81E330133DBB284F87C
:1038E8001E33032B03D90D232370012567E061796B
:1038F800204600F081FD2179204600F07DFD00235F
:103908006370237001255AE0B0F83A1300F066FCA2
:1039180018B905236370012551E0032801D001255A
:103928004DE094F81E330133DBB284F81E33032BC9
:1039380003D90D232370012541E06179204600F069
:103948005BFD2179204600F057FD0023637023704A
:10395800012534E090F8341319B906234370012582
:103968002DE0FF2300F58E7200F051FC18B90623F4
:103978006370012523E0032801D001251FE00623F9
:10398800637001251BE090F8351319B907234370BC
:10399800012514E0FF2300F58E7200F038FC18B9F9
:1039A8000723637001250AE0032801D0012506E0FA
:1039B80007236370012502E090F8365315B92846AD
:1039C80004B070BDFF2300F58E72294600F01FFC7D
:1039D80005460028F3D0032803D00125EFE7012589
:1039E800EDE70025EBE7D8B170B50E46044680F840
:1039F800CC230025C0F87C53C0F88053FFF782FE23
:103A080084F8235384F8205384F8215384F82253EC
:103A18000EB1C4F8D4632046FDF716FA002070BD35
:103A2800022070470A4651B1D0F880334BB9591C6F
:103A3800C0F88013DE3340F82320002070470220AE
:103A480070470220704790F83C338B4203D980F8C6
:103A58002413002070470220704770B406460020E7
:103A68000AE01A2404FB056595F849439C421AD0DC
:103A7800FF2B18D00130C0B2012813D805461A24EC
:103A880004FB006494F847438C4201D0FF29F1D12C
:103A98001A2404FB056494F848439442E1D0FF2AB1
:103AA800E8D1DEE7FF2070BC704710B50446FDF78B
:103AB80045FA01212046FDF70DFA002010BD30B56A
:103AC80087B0044602238DF8173090F82133DBB213
:103AD800012B11D02378DBB20B2B7BD8DFE813F056
:103AE8000F00210045000A017A007D00E7009200DE
:103AF8009C00A600B700010103230370EAE794F8CD
:103B08002033002B66D001232370C820FDF708FA64
:103B18002046FDF723FA002384F81C33C4F8C83381
:103B280058E094F82333012B0FD0D4F8C833B3F5F9
:103B38007A7F13D994F81F330133DBB284F81F332B
:103B4800032B08D90D23237044E0002384F81F3386
:103B5800022323703EE0002323703BE00A33C4F8BD
:103B6800C8330A20FDF7DCF934E0D4F8D43313B1B4
:103B78000421204698476420FDF7D2F92046FDF736
:103B88008DF984F81D03052323700021204600F0D9
:103B980020FC60718021204600F01BFC014620714A
:103BA800A37902930025019594F81D33009394F8A6
:103BB8001C338022204600F0F7FBA379029301957D
:103BC80094F81D33009394F81C332A4661792046F3
:103BD80000F0EAFB002007B030BD2046FFF7CCFD1F
:103BE8008DF817009DF81730002BF3D184F8243393
:103BF80094F83733012B02D007232370EAE7082310
:103C08002370E7E7D4F8D433002BE3D00121204612
:103C1800984708232370DDE794F83D13204600F009
:103C28001FFB0028D6D109232370D3E794F83F332C
:103C380013F0200F02D10A232370CBE7012120467D
:103C480000F01FFB0028C5D10A232370C2E7D4F86F
:103C58008033002BBED00023C4F87C3373B1D4F872
:103C68007C330BB39B6820469847D0B90623237052
:103C7800D4F8D433032120469847ABE7184603F11C
:103C8800DE0254F82220117994F84723914202D099
:103C98000133DBB2E2E7DE3054F82030C4F87C337D
:103CA800DDE70D23237095E70D23237092E7D4F801
:103CB8007C339BB11B69204698478DF817009DF807
:103CC800173013B90B23237084E79DF81730DBB244
:103CD800022B7FF47FAF0D2323707BE70D23237026
:103CE80078E7D4F87C33002B3FF474AF5B69204647
:103CF80098476FE7002384F821332046FFF702FD39
:103D0800D4F87C332BB1DB68204698470023C4F8ED
:103D18007C33D4F8D43313B105212046984794F85E
:103D28002233DBB2012B03D02046FDF707F951E718
:103D3800002384F822332046FFF7B7FE4AE7C0F88D
:103D4800C413704708B5D0F8C4230132C0F8C4239F
:103D5800FFF705FD08BD012380F8233370470023D2
:103D680080F8233370470346012280F8202300207F
:103D780083F8210383F82203704738B504460123EA
:103D880080F82133002580F8205380F82353FDF76D
:103D9800DDF82179204600F02FFB6179204600F0FC
:103DA8002BFB284638BD10B40B7803704B78437052
:103DB8008B78CC7843EA042343800B7903714B79E1
:103DC80043718B798371CB79C371082A16D90B7A21
:103DD8004A7A43EA022303818B7ACA7A43EA0223A6
:103DE80043810B7B4A7B43EA022383818B7B83736A
:103DF800CB7BC3730B7C03744B7C43745DF8044B1F
:103E080070470B7803704B7843708B788370CB784E
:103E1800C3700B7903714B7943718B798371CB79BB
:103E2800C3710B7A037270470B7803704B78437039
:103E38008B788370CB78C3700B794A7943EA022375
:103E480083808B79837170474378032B00D0704748
:103E58000378023B9A4228BF1A4692B20023934243
:103E68000DD210B4C418A47801F8014B02339BB2E8
:103E78009342F7D300230B705DF8044B704700237F
:103E88000B70704730B583B00446057E6B1E0A2B55
:103E980000F2DE80DFE803F00610354154617E8AC7
:103EA8009DAAC100427900F1100100F00DFA022329
:103EB8002376284603B030BD4179FDF705F805465D
:103EC800012805D0042818D0022816D00125F0E7CB
:103ED800237CE28A42B113F0800F02D105232376B6
:103EE800E7E703232376E4E713F0800F02D10723E3
:103EF8002376DEE709232376DBE70B2323760125E8
:103F0800D7E7D0F8C433C38103798289816800F088
:103F180002FA042323760125CBE70179FCF7D4FFC5
:103F2800012806D0052800F09580042804D0012532
:103F3800BFE709232376F5E70B2323760125B8E7A6
:103F48000125009543798289816800F0CEF9D4F87B
:103F5800C433E38106232376ABE74179FCF7B4FF4A
:103F68000546012807D0052808D002280AD00428C9
:103F78000CD001259DE7072323769AE70C232376A7
:103F8800032596E705232376012592E70B2323765D
:103F980002258EE703790022114600F0BCF9D4F817
:103FA800C433E38108232376012582E70179FCF7EE
:103FB8008BFF012805D0042807D005284CD00125FF
:103FC80077E70D232376002573E70B232376012556
:103FD8006FE70125009543790022114600F085F925
:103FE800D4F8C433E3810A23237662E74179FCF7E6
:103FF8006BFF012805D0022807D0042809D0012525
:1040080057E70D232376002553E709232376012557
:104018004FE70B23237601254BE7437E0133DBB2C1
:104028004376022B03D801250576857041E7D0F841
:10403800D43306219847002565766179204600F03B
:10404800DBF92179204600F0D7F92570022530E701
:1040580001252EE703252CE703252AE703780A889C
:1040680013440B800378184470472DE9F04182B05F
:104078000C460B7803704B7843708B78C97843EA09
:10408800012343802379037163794371A379837191
:10409800E379C371237A0372092A44D905460923AF
:1040A800ADF806300026012E3DD86A88BDF80630E6
:1040B8009A4238D90DF106012046FFF7CFFF044692
:1040C8004378042BEFD1B0461A2000FB06F00830E5
:1040D800284421460230FFF794FE00271A2303FBE9
:1040E80008539B7BBB421BD96A88BDF806309A42AD
:1040F80016D90DF106012046FFF7B0FF04464378B4
:10410800052BEBD101371A2000FB08F000EBC700A4
:104118000830284421460430FFF786FEFFB2DDE769
:104128000136F6B2BFE702B0BDE8F08110B504462B
:104138008078012803D0022808D0012010BDA16092
:10414800A281012323760223A370F7E72046FFF715
:1041580099FE30B1032804D00228EFD10123A370BF
:10416800ECE70123A37000232376E7E738B50D4673
:1041780014461946BDF810208378012B02D0FFF7AA
:10418800D5FF38BD65F07F05057406234374448266
:1041980004F47F44B4F5407F03D000238382C282B5
:1041A800EDE740F209438382F9E7F0B583B00446AE
:1041B80000F58E760D46009133464FF4807200214B
:1041C800FFF7D4FF074610B1384603B0F0BD2A46C2
:1041D800314604F22630FFF7E6FDF5E7F0B583B087
:1041E80004460D4600F11C06009133464FF4007258
:1041F8000021FFF7BBFF074610B1384603B0F0BDFA
:104208002A46314604F54E70FFF72FFFF5E7F0B563
:1042180083B016461D4600F58E740093234641F47C
:1042280040720021FFF7A2FF074610B1384603B0DD
:10423800F0BD2A4631462046FFF706FEF6E708B5E8
:104248008378012B04D000221146FFF76FFF08BDC9
:10425800002303740522427441828382C382F2E7F9
:1042680008B58378012B04D000221146FFF75EFFC2
:1042780008BD002303740922427441828382C382E9
:10428800F2E708B58378012B04D000221146FFF726
:104298004DFF08BD002303740322427441828382C8
:1042A800C382F2E708B58378012B04D000221146B7
:1042B800FFF73CFF08BD0223037401234374002366
:1042C80043828182C382F1E710B584B00B46114660
:1042D8000024039408220292019300942346224664
:1042E800FCF75FFE204604B010BD30B585B00C4623
:1042F80019469DF8203090F81D5305B1002303930B
:10430800029201940123009300231A46FCF749FE08
:10431800002005B030BD30B585B00D4619460024E3
:10432800039402920195012200922346FCF739FE7C
:10433800204605B030BD30B585B00C4619469DF80D
:10434800203090F81D5305B1002303930292019485
:104358000123009302230022FCF723FE002005B06E
:1043680030BD30B585B00D4619460024039402923D
:104378000195012200920223FCF713FE204605B0A6
:1043880030BD00230A2B0CD803F1E00200EB8202B7
:10439800526812F4004F02D00133DBB2F2E798B250
:1043A80070474FF6FF70704710B584B0BDF82040D5
:1043B80002949DF81C4001949DF818400094FCF765
:1043C800D5FD002004B010BD08B5FCF7E2FD0020C3
:1043D80008BD38B504460D46FFF7D3FF4FF6FF7307
:1043E800984207D000F00F0345F40045E03304EB92
:1043F80083046560C0B238BD0A2906D8E03100EBF5
:1044080081014B68C3F30E034B6000207047002006
:10441800704708B521220274202242740022428289
:1044280082820722C282FFF781FE08BD08B5A12259
:104438000274212242740022428282820722C282AE
:10444800FFF774FE08BD38B50446D0F87C33D96947
:104458004031FFF7EBFF054620B9D4F8D4330221E9
:1044680020469847284638BD38B50446D0F87C33EE
:10447800DD69297879B9297BB1B9697BF1B9D4F8B3
:104488007C33D86928B1FBF7EBFED4F87C330022E3
:10449800DA61002038BDFFF797FF29782046FFF73B
:1044A800ABFF00232B70E6E72046FFF78DFF297B43
:1044B8002046FFF7A1FF00232B73DEE72046FFF716
:1044C80083FF697B2046FFF797FF00236B73D6E7CE
:1044D800F0B585B00446012302221146FFF7BDFA64
:1044E800012800F2AE80064601462046FFF7ABFAE7
:1044F8000746002840F0A980D4F87C535020FBF7E9
:10450800A7FEE861D4F87C33DD69002D00F09F80B8
:10451800502200212846FBF7ABFE1A2303FB064373
:1045280093F84E2393F94E33002B72DB69782046BB
:10453800FFF74FFF014628706A786B8902930323BF
:10454800019394F81D33009394F81C332046FFF729
:104558002BFF002229782046FCF7CAFC00231A46C4
:104568000A212046FFF779FA012872D81A2303FB9B
:10457800004393F84E2393F94E33002B51DBAA7373
:104588001A2303FB0043B3F850332B831A2303FB8E
:10459800004393F8562393F95633002B49DBAA734B
:1045A8001A2303FB0040B0F858332B83A97B20461D
:1045B800FFF70FFF6873E97B2046FFF70AFF2873B0
:1045C800AA7B697B2B8B02930226019694F81D33F4
:1045D800009394F81C332046FFF7E6FEEA7B297B1C
:1045E8006B8B0293019694F81D33009394F81C3357
:1045F8002046FFF7D9FE002685F84C603246697BD5
:104608002046FCF775FC3246297B2046FCF770FCF7
:1046180018E06A701A2000FB0646B6F850336B8122
:1046280084E7EA731A2303FB0043B3F850336B8320
:10463800ACE7EA731A2303FB0040B0F858336B83E6
:10464800B4E70227384605B0F0BD0227FAE702278B
:10465800F8E70227F6E7704730B583B00546D0F88B
:104668007C33DC6994F84D30012B03D0022B19D030
:1046780003B030BD606A228B90420AD9637BE1693E
:10468800012000902846FFF756FE022384F84D309B
:10469800EEE7637BE1690122009282B22846FFF7C8
:1046A8004AFEF2E7617BFCF70FFC012805D00228DF
:1046B800DED1012384F84D30DAE7636A228B934216
:1046C8000AD99B1A6362E3691A44E261636A33B1E7
:1046D800012384F84D30CBE700236362F6E700231B
:1046E80084F84D302846FFF7B6FFC1E7704738B564
:1046F8000446D0F87C33DD6995F84E30032B02D0A0
:10470800042B09D038BD2B7B6A8B296AFFF729FE59
:10471800042385F84E30F5E7297BFCF7D5FB012803
:10472800F0D1297B2046FCF7C9FBAB6A83420BD04A
:104738006A8B824208D21B1AAB622B6A1844286221
:10474800032385F84E30DDE7002385F84E302046F8
:10475800FFF7CCFFD6E7704770B50446D0F87C3336
:10476800DE6996F84C50042D04D8DFE805F03F05C3
:1047780013394100012539E0B16CFFF74AFE18B939
:10478800022386F84C3031E001283AD0042386F819
:104798004C302BE006F14001FFF748FE0546C0B952
:1047A800002386F84C30736C23F07F42B16C4B6861
:1047B80023F07F439A4201D0012517E0326C0B6841
:1047C8009A4201D0012511E02046FFF7C4FF0125D8
:1047D8000CE001280AD0042386F84C30012505E0B6
:1047E800FFF73AFF2046FFF782FF0125284670BDF4
:1047F8000021FFF757FD30B9002386F84C3001251A
:10480800F4E70546F2E70125F0E70000DFF834D0C9
:10481800002103E00C4B5B58435004310B480C4B10
:1048280042189A42F6D30B4A02E0002342F8043BAE
:10483800094B9A42F9D3FEF757FFFBF7E5FCFCF763
:1048480047F9704700000220AC480008000000202B
:10485800900000209000002058080020FEE700008B
:10486800F8B500BFF8BC08BC9E467047F8B500BF55
:08487800F8BC08BC9E46704725
:104880000000000000000000010203040607080900
:0C48900000000000010203044344430048
:08489C0068BCFF7F0100000071
:0448A400F101000816
:0448A800C90100083A
:1048AC0004000020000000000000000000000000D8
:1048BC0000000000000000000000000000000000EC
:1048CC0000000000000000000000000000000000DC
:1048DC0000000000000000000000000000000000CC
:1048EC0000000000000000000000000000000000BC
:1048FC0000000000000000000000000000000000AC
:10490C000000000001000000100000000024F40072
:10491C009848000802000000D944000871440008BF
:10492C004F440008614700081744000800000000CD
:040000050800481592
:00000001FF
